{
  "address": "0x5FbDB2315678afecb367f032d93F642f64180aa3",
  "abi": [
    {
      "inputs": [
        {
          "internalType": "uint8",
          "name": "_protocolFee",
          "type": "uint8"
        },
        {
          "internalType": "uint8",
          "name": "_juryFee",
          "type": "uint8"
        },
        {
          "internalType": "uint24",
          "name": "_juryLength",
          "type": "uint24"
        }
      ],
      "stateMutability": "nonpayable",
      "type": "constructor"
    },
    {
      "anonymous": false,
      "inputs": [
        {
          "indexed": false,
          "internalType": "enum freelanceContract.ContractState",
          "name": "previousStatus",
          "type": "uint8"
        },
        {
          "indexed": false,
          "internalType": "enum freelanceContract.ContractState",
          "name": "newStatus",
          "type": "uint8"
        }
      ],
      "name": "ContractStateChange",
      "type": "event"
    },
    {
      "anonymous": false,
      "inputs": [
        {
          "indexed": true,
          "internalType": "address",
          "name": "previousOwner",
          "type": "address"
        },
        {
          "indexed": true,
          "internalType": "address",
          "name": "newOwner",
          "type": "address"
        }
      ],
      "name": "OwnershipTransferred",
      "type": "event"
    },
    {
      "anonymous": false,
      "inputs": [
        {
          "indexed": false,
          "internalType": "uint256",
          "name": "disputeId",
          "type": "uint256"
        },
        {
          "indexed": false,
          "internalType": "address",
          "name": "juryAddress",
          "type": "address"
        }
      ],
      "name": "Voted",
      "type": "event"
    },
    {
      "inputs": [],
      "name": "addClient",
      "outputs": [],
      "stateMutability": "nonpayable",
      "type": "function"
    },
    {
      "inputs": [],
      "name": "addJury",
      "outputs": [],
      "stateMutability": "nonpayable",
      "type": "function"
    },
    {
      "inputs": [],
      "name": "addWorker",
      "outputs": [],
      "stateMutability": "nonpayable",
      "type": "function"
    },
    {
      "inputs": [
        {
          "internalType": "uint256",
          "name": "_contractId",
          "type": "uint256"
        }
      ],
      "name": "cancelContractByClient",
      "outputs": [],
      "stateMutability": "nonpayable",
      "type": "function"
    },
    {
      "inputs": [
        {
          "internalType": "uint256",
          "name": "_contractId",
          "type": "uint256"
        }
      ],
      "name": "cancelContractByWorker",
      "outputs": [],
      "stateMutability": "nonpayable",
      "type": "function"
    },
    {
      "inputs": [
        {
          "internalType": "address",
          "name": "",
          "type": "address"
        }
      ],
      "name": "clients",
      "outputs": [
        {
          "internalType": "bool",
          "name": "",
          "type": "bool"
        }
      ],
      "stateMutability": "view",
      "type": "function"
    },
    {
      "inputs": [],
      "name": "contractCounter",
      "outputs": [
        {
          "internalType": "uint256",
          "name": "",
          "type": "uint256"
        }
      ],
      "stateMutability": "view",
      "type": "function"
    },
    {
      "inputs": [
        {
          "internalType": "uint256",
          "name": "",
          "type": "uint256"
        }
      ],
      "name": "contractStates",
      "outputs": [
        {
          "internalType": "enum freelanceContract.ContractState",
          "name": "",
          "type": "uint8"
        }
      ],
      "stateMutability": "view",
      "type": "function"
    },
    {
      "inputs": [
        {
          "internalType": "uint256",
          "name": "",
          "type": "uint256"
        }
      ],
      "name": "contracts",
      "outputs": [
        {
          "internalType": "address payable",
          "name": "client",
          "type": "address"
        },
        {
          "internalType": "address payable",
          "name": "worker",
          "type": "address"
        },
        {
          "internalType": "bytes32",
          "name": "hashJob",
          "type": "bytes32"
        },
        {
          "internalType": "uint256",
          "name": "deadline",
          "type": "uint256"
        },
        {
          "internalType": "uint256",
          "name": "createAt",
          "type": "uint256"
        },
        {
          "internalType": "uint256",
          "name": "price",
          "type": "uint256"
        },
        {
          "internalType": "uint256",
          "name": "disputeId",
          "type": "uint256"
        },
        {
          "internalType": "enum freelanceContract.ContractState",
          "name": "state",
          "type": "uint8"
        }
      ],
      "stateMutability": "view",
      "type": "function"
    },
    {
      "inputs": [
        {
          "internalType": "uint256",
          "name": "_deadline",
          "type": "uint256"
        },
        {
          "internalType": "uint256",
          "name": "_today",
          "type": "uint256"
        },
        {
          "internalType": "bytes32",
          "name": "_hash",
          "type": "bytes32"
        }
      ],
      "name": "createContract",
      "outputs": [],
      "stateMutability": "payable",
      "type": "function"
    },
    {
      "inputs": [],
      "name": "disputeCounter",
      "outputs": [
        {
          "internalType": "uint256",
          "name": "",
          "type": "uint256"
        }
      ],
      "stateMutability": "view",
      "type": "function"
    },
    {
      "inputs": [
        {
          "internalType": "uint256",
          "name": "",
          "type": "uint256"
        }
      ],
      "name": "disputes",
      "outputs": [
        {
          "internalType": "uint256",
          "name": "disputeId",
          "type": "uint256"
        },
        {
          "internalType": "uint256",
          "name": "contractId",
          "type": "uint256"
        },
        {
          "internalType": "uint24",
          "name": "totalVoteCount",
          "type": "uint24"
        },
        {
          "internalType": "uint24",
          "name": "clientVoteCount",
          "type": "uint24"
        },
        {
          "internalType": "uint24",
          "name": "workerVoteCount",
          "type": "uint24"
        },
        {
          "internalType": "address",
          "name": "disputeInitiator",
          "type": "address"
        }
      ],
      "stateMutability": "view",
      "type": "function"
    },
    {
      "inputs": [
        {
          "internalType": "uint256",
          "name": "_disputeId",
          "type": "uint256"
        }
      ],
      "name": "getJuryMembers",
      "outputs": [
        {
          "internalType": "address[]",
          "name": "",
          "type": "address[]"
        }
      ],
      "stateMutability": "view",
      "type": "function"
    },
    {
      "inputs": [
        {
          "internalType": "uint256",
          "name": "_disputeId",
          "type": "uint256"
        },
        {
          "internalType": "address",
          "name": "_juryAddress",
          "type": "address"
        }
      ],
      "name": "hasVoted",
      "outputs": [
        {
          "internalType": "bool",
          "name": "",
          "type": "bool"
        }
      ],
      "stateMutability": "view",
      "type": "function"
    },
    {
      "inputs": [],
      "name": "isClient",
      "outputs": [
        {
          "internalType": "bool",
          "name": "",
          "type": "bool"
        }
      ],
      "stateMutability": "view",
      "type": "function"
    },
    {
      "inputs": [
        {
          "internalType": "address",
          "name": "_address",
          "type": "address"
        }
      ],
      "name": "isJury",
      "outputs": [
        {
          "internalType": "bool",
          "name": "",
          "type": "bool"
        }
      ],
      "stateMutability": "view",
      "type": "function"
    },
    {
      "inputs": [
        {
          "internalType": "uint256",
          "name": "_disputeId",
          "type": "uint256"
        },
        {
          "internalType": "address",
          "name": "_juryAddress",
          "type": "address"
        }
      ],
      "name": "isJuryInDispute",
      "outputs": [
        {
          "internalType": "bool",
          "name": "",
          "type": "bool"
        }
      ],
      "stateMutability": "view",
      "type": "function"
    },
    {
      "inputs": [],
      "name": "isWorker",
      "outputs": [
        {
          "internalType": "bool",
          "name": "",
          "type": "bool"
        }
      ],
      "stateMutability": "view",
      "type": "function"
    },
    {
      "inputs": [],
      "name": "juryCounter",
      "outputs": [
        {
          "internalType": "uint256",
          "name": "",
          "type": "uint256"
        }
      ],
      "stateMutability": "view",
      "type": "function"
    },
    {
      "inputs": [],
      "name": "juryFee",
      "outputs": [
        {
          "internalType": "uint8",
          "name": "",
          "type": "uint8"
        }
      ],
      "stateMutability": "view",
      "type": "function"
    },
    {
      "inputs": [],
      "name": "juryLength",
      "outputs": [
        {
          "internalType": "uint24",
          "name": "",
          "type": "uint24"
        }
      ],
      "stateMutability": "view",
      "type": "function"
    },
    {
      "inputs": [
        {
          "internalType": "uint256",
          "name": "",
          "type": "uint256"
        }
      ],
      "name": "juryPool",
      "outputs": [
        {
          "internalType": "address",
          "name": "",
          "type": "address"
        }
      ],
      "stateMutability": "view",
      "type": "function"
    },
    {
      "inputs": [
        {
          "internalType": "uint256",
          "name": "_contractId",
          "type": "uint256"
        }
      ],
      "name": "openDispute",
      "outputs": [],
      "stateMutability": "nonpayable",
      "type": "function"
    },
    {
      "inputs": [],
      "name": "owner",
      "outputs": [
        {
          "internalType": "address",
          "name": "",
          "type": "address"
        }
      ],
      "stateMutability": "view",
      "type": "function"
    },
    {
      "inputs": [],
      "name": "protocolFee",
      "outputs": [
        {
          "internalType": "uint8",
          "name": "",
          "type": "uint8"
        }
      ],
      "stateMutability": "view",
      "type": "function"
    },
    {
      "inputs": [
        {
          "internalType": "uint256",
          "name": "_contractId",
          "type": "uint256"
        }
      ],
      "name": "pullPayment",
      "outputs": [],
      "stateMutability": "nonpayable",
      "type": "function"
    },
    {
      "inputs": [
        {
          "internalType": "uint256",
          "name": "_seed",
          "type": "uint256"
        }
      ],
      "name": "random",
      "outputs": [
        {
          "internalType": "uint256",
          "name": "",
          "type": "uint256"
        }
      ],
      "stateMutability": "view",
      "type": "function"
    },
    {
      "inputs": [],
      "name": "removeClient",
      "outputs": [],
      "stateMutability": "nonpayable",
      "type": "function"
    },
    {
      "inputs": [],
      "name": "removeJury",
      "outputs": [],
      "stateMutability": "nonpayable",
      "type": "function"
    },
    {
      "inputs": [],
      "name": "removeWorker",
      "outputs": [],
      "stateMutability": "nonpayable",
      "type": "function"
    },
    {
      "inputs": [],
      "name": "renounceOwnership",
      "outputs": [],
      "stateMutability": "nonpayable",
      "type": "function"
    },
    {
      "inputs": [
        {
          "internalType": "uint256",
          "name": "_contractId",
          "type": "uint256"
        }
      ],
      "name": "requestClientValidation",
      "outputs": [],
      "stateMutability": "nonpayable",
      "type": "function"
    },
    {
      "inputs": [
        {
          "internalType": "uint256",
          "name": "_contractId",
          "type": "uint256"
        }
      ],
      "name": "revealState",
      "outputs": [],
      "stateMutability": "nonpayable",
      "type": "function"
    },
    {
      "inputs": [
        {
          "internalType": "uint256",
          "name": "_contractId",
          "type": "uint256"
        }
      ],
      "name": "selectJuryMember",
      "outputs": [],
      "stateMutability": "nonpayable",
      "type": "function"
    },
    {
      "inputs": [
        {
          "internalType": "uint256",
          "name": "_contractId",
          "type": "uint256"
        }
      ],
      "name": "setIsFinishedAndAllowPayment",
      "outputs": [],
      "stateMutability": "nonpayable",
      "type": "function"
    },
    {
      "inputs": [
        {
          "internalType": "uint8",
          "name": "_juryFee",
          "type": "uint8"
        }
      ],
      "name": "setJuryFee",
      "outputs": [],
      "stateMutability": "nonpayable",
      "type": "function"
    },
    {
      "inputs": [
        {
          "internalType": "uint8",
          "name": "_juryLength",
          "type": "uint8"
        }
      ],
      "name": "setJuryLength",
      "outputs": [],
      "stateMutability": "nonpayable",
      "type": "function"
    },
    {
      "inputs": [
        {
          "internalType": "uint8",
          "name": "_protocolFee",
          "type": "uint8"
        }
      ],
      "name": "setProtocolFee",
      "outputs": [],
      "stateMutability": "nonpayable",
      "type": "function"
    },
    {
      "inputs": [
        {
          "internalType": "uint256",
          "name": "_contractId",
          "type": "uint256"
        }
      ],
      "name": "signContract",
      "outputs": [],
      "stateMutability": "nonpayable",
      "type": "function"
    },
    {
      "inputs": [
        {
          "internalType": "address",
          "name": "newOwner",
          "type": "address"
        }
      ],
      "name": "transferOwnership",
      "outputs": [],
      "stateMutability": "nonpayable",
      "type": "function"
    },
    {
      "inputs": [
        {
          "internalType": "uint256",
          "name": "_contractId",
          "type": "uint256"
        },
        {
          "internalType": "bool",
          "name": "_vote",
          "type": "bool"
        }
      ],
      "name": "vote",
      "outputs": [],
      "stateMutability": "nonpayable",
      "type": "function"
    },
    {
      "inputs": [
        {
          "internalType": "address",
          "name": "",
          "type": "address"
        }
      ],
      "name": "workers",
      "outputs": [
        {
          "internalType": "bool",
          "name": "",
          "type": "bool"
        }
      ],
      "stateMutability": "view",
      "type": "function"
    }
  ],
  "transactionHash": "0xc29ac54fc62ca44fd4b587731757515bfc43d6e6b7c1212bb1495ccbe562654c",
  "args": [
    5,
    5,
    3
  ],
  "numDeployments": 1,
  "solcInputHash": "4468e28a8f2156a49e159bd7f2e2ffc9",
  "bytecode": "0x60806040526000600755600060085560006009553480156200002057600080fd5b50604051620039293803806200392983398101604081905262000043916200011e565b6200004e33620000b7565b6000805462ffffff909216600160a01b0262ffffff60a01b1960ff948516600160c01b0260ff60c01b1995909616600160b81b029490941661ffff60b81b19909316929092179390931791909116179055600180546001600160a01b0319163317905562000173565b600080546001600160a01b038381166001600160a01b0319831681178455604051919092169283917f8be0079c531659141344cd1fd0a4f28419497f9722a3daafe3b4186f6b6457e09190a35050565b805160ff811681146200011957600080fd5b919050565b6000806000606084860312156200013457600080fd5b6200013f8462000107565b92506200014f6020850162000107565b9150604084015162ffffff811681146200016857600080fd5b809150509250925092565b6137a680620001836000396000f3fe6080604052600436106102d15760003560e01c806374b7399711610179578063b406df6d116100d6578063c8ac5e5f1161008a578063e421fbca11610064578063e421fbca14610914578063ef2c02a81461092a578063f2fde38b1461093f57600080fd5b8063c8ac5e5f146108bf578063c9d27afe146108df578063d77640fe146108ff57600080fd5b8063b9b268fe116100bb578063b9b268fe1461086a578063bbbb77fb1461088a578063c26939581461089f57600080fd5b8063b406df6d146107f9578063b863bd371461081957600080fd5b8063985835901161012d578063a7e7ec2011610112578063a7e7ec2014610785578063b01f0617146107b8578063b0e21e8a146107d857600080fd5b8063985835901461073c578063a3626ece1461077257600080fd5b80638008e8bc1161015e5780638008e8bc146106ca5780638da5cb5b146106ea5780639537e8d11461071c57600080fd5b806374b73997146106945780637d36f4d3146106b457600080fd5b8063474da79a116102325780635823440f116101e65780636c77ee8c116101c05780636c77ee8c1461064a578063715018a61461066a57806374b4f03a1461067f57600080fd5b80635823440f146105cd57806361eed2a9146105ed5780636b655e451461061d57600080fd5b80634e91f811116102175780634e91f811146104e7578063533aa47414610507578063564a565d1461051c57600080fd5b8063474da79a1461042d5780634b4d3489146104b057600080fd5b806327d00fb0116102895780632b254c771161026e5780632b254c77146103c85780634048a257146103dd578063438596321461040d57600080fd5b806327d00fb0146103835780632a2520a7146103a357600080fd5b80631c798b6a116102ba5780631c798b6a146103215780631d4c6e6d1461034157806324baf3bb1461036e57600080fd5b806305f744c1146102d6578063067bd3b4146102f8575b600080fd5b3480156102e257600080fd5b506102f66102f13660046133dc565b61095f565b005b34801561030457600080fd5b5061030e60075481565b6040519081526020015b60405180910390f35b34801561032d57600080fd5b506102f661033c3660046133dc565b610b37565b34801561034d57600080fd5b5061036161035c3660046133dc565b610d99565b604051610318919061342d565b34801561037a57600080fd5b506102f6610dcd565b34801561038f57600080fd5b506102f661039e3660046133dc565b610e8a565b3480156103af57600080fd5b506103b8611189565b6040519015158152602001610318565b3480156103d457600080fd5b506102f66111b1565b3480156103e957600080fd5b506103b86103f8366004613457565b60026020526000908152604090205460ff1681565b34801561041957600080fd5b506103b8610428366004613479565b61126d565b34801561043957600080fd5b5061049c6104483660046133dc565b6005602081905260009182526040909120805460018201546002830154600384015460048501549585015460068601546007909601546001600160a01b039586169794909516959294919392909160ff1688565b6040516103189897969594939291906134a5565b3480156104bc57600080fd5b506000546104d390600160a01b900462ffffff1681565b60405162ffffff9091168152602001610318565b3480156104f357600080fd5b506102f66105023660046134fc565b611326565b34801561051357600080fd5b506102f6611369565b34801561052857600080fd5b5061058c6105373660046133dc565b60046020526000908152604090208054600182015460029092015490919062ffffff8082169163010000008104821691660100000000000082041690690100000000000000000090046001600160a01b031686565b60408051968752602087019590955262ffffff9384169486019490945290821660608501521660808301526001600160a01b031660a082015260c001610318565b3480156105d957600080fd5b506102f66105e83660046133dc565b611425565b3480156105f957600080fd5b506103b8610608366004613457565b60036020526000908152604090205460ff1681565b34801561062957600080fd5b5061063d6106383660046133dc565b61157c565b604051610318919061351f565b34801561065657600080fd5b506102f66106653660046134fc565b611660565b34801561067657600080fd5b506102f66116a3565b34801561068b57600080fd5b506102f66116b7565b3480156106a057600080fd5b506103b86106af366004613457565b61172f565b3480156106c057600080fd5b5061030e60085481565b3480156106d657600080fd5b506102f66106e53660046133dc565b61178f565b3480156106f657600080fd5b506000546001600160a01b03165b6040516001600160a01b039091168152602001610318565b34801561072857600080fd5b506102f66107373660046133dc565b6118f1565b34801561074857600080fd5b506107046107573660046133dc565b6006602052600090815260409020546001600160a01b031681565b6102f661078036600461356c565b611a5c565b34801561079157600080fd5b506000546107a690600160c01b900460ff1681565b60405160ff9091168152602001610318565b3480156107c457600080fd5b506102f66107d33660046133dc565b611c81565b3480156107e457600080fd5b506000546107a690600160b81b900460ff1681565b34801561080557600080fd5b506103b8610814366004613479565b611d9f565b34801561082557600080fd5b5061030e6108343660046133dc565b60408051426020808301919091524482840152606080830194909452825180830390940184526080909101909152815191012090565b34801561087657600080fd5b506102f66108853660046133dc565b611e24565b34801561089657600080fd5b506102f6612b18565b3480156108ab57600080fd5b506102f66108ba3660046134fc565b612bd5565b3480156108cb57600080fd5b506102f66108da3660046133dc565b612c17565b3480156108eb57600080fd5b506102f66108fa366004613598565b612d6e565b34801561090b57600080fd5b506102f661308a565b34801561092057600080fd5b5061030e60095481565b34801561093657600080fd5b506103b86131a8565b34801561094b57600080fd5b506102f661095a366004613457565b6131ca565b8060008060008381526005602052604090206007015460ff16600b811115610989576109896133f5565b146109e95760405162461bcd60e51b815260206004820152602560248201527f436f6e7472616374206973206e6f7420696e2074686520636f727265637420736044820152643a30ba329760d91b60648201526084015b60405180910390fd5b60008381526005602052604090205483906001600160a01b03163314610a615760405162461bcd60e51b815260206004820152602760248201527f4f6e6c792074686520636c69656e742063616e2063616c6c20746869732066756044820152663731ba34b7b71760c91b60648201526084016109e0565b600084815260056020526040812090600782015460ff16600b811115610a8957610a896133f5565b14610ae45760405162461bcd60e51b815260206004820152602560248201527f54686520636f6e74726163742068617320616c7265616479206265656e20736960448201526433b732b21760d91b60648201526084016109e0565b60078101805460ff1916600a9081179091556040517fca0909b6a575d31f318fe4f6dcc11334c453853c378dcd7fcb70a9ed8a9df56691610b2891600091906135cd565b60405180910390a15050505050565b60008054600160a01b900462ffffff1667ffffffffffffffff811115610b5f57610b5f6135e8565b604051908082528060200260200182016040528015610b88578160200160208202803683370190505b506000838152600560209081526040808320600681015484526004835281842082516060810184528581529384018590529183018490529394509133905b60005462ffffff600160a01b90910481169082161015610d445780610beb888261325a565b92506000805b88518162ffffff161015610c5557888162ffffff1681518110610c1657610c166135fe565b60200260200101516001600160a01b0316856001600160a01b031603610c3f5760019150610c55565b6000915080610c4d8161362a565b915050610bf1565b506000546003870154600160a01b90910462ffffff16118015610c76575080155b15610d1b576040805160608101825262ffffff8086168252600060208084018281526001600160a01b03808b1696860196875260038d0180546001810182559085529290932085519201805491519651909316640100000000027fffffffffffffffff0000000000000000000000000000000000000000ffffffff96151563010000000263ffffffff1990921692909416919091171793909316179091559450610d2f565b82610d258161364c565b9350505050610d32565b50505b80610d3c8161362a565b915050610bc6565b5060078401805460ff191660059081179091556040517fca0909b6a575d31f318fe4f6dcc11334c453853c378dcd7fcb70a9ed8a9df56691610d8991600491906135cd565b60405180910390a1505050505050565b600a8181548110610da957600080fd5b9060005260206000209060209182820401919006915054906101000a900460ff1681565b33610e0d5760405162461bcd60e51b815260206004820152601060248201526f24b73b30b634b21030b2323932b9b99760811b60448201526064016109e0565b3360009081526003602052604090205460ff161515600114610e715760405162461bcd60e51b815260206004820152601660248201527f436c69656e7420646f6573206e6f742065786973742e0000000000000000000060448201526064016109e0565b336000908152600360205260409020805460ff19169055565b60008181526005602052604090205481906001600160a01b0316331480610eca57506000818152600560205260409020600101546001600160a01b031633145b610f3c5760405162461bcd60e51b815260206004820152603560248201527f4f6e6c792074686520636c69656e74206f722074686520776f726b657220636160448201527f6e2063616c6c20746869732066756e6374696f6e2e000000000000000000000060648201526084016109e0565b600054600954600160a01b90910462ffffff1610610fc25760405162461bcd60e51b815260206004820152602e60248201527f4e6f7420656e6f756768206a75727920696e206a757279506f6f6c20746f206f60448201527f70656e206120646973707574652e00000000000000000000000000000000000060648201526084016109e0565b600160008381526005602052604090206007015460ff16600b811115610fea57610fea6133f5565b148061101b5750600260008381526005602052604090206007015460ff16600b811115611019576110196133f5565b145b6110b45760405162461bcd60e51b8152602060048201526044602482018190527f54686520636f6e7472616374206d75737420626520696e20776f726b20737461908201527f72746564206f722077616974696e6720636c69656e742072657669657720737460648201527f6174652e00000000000000000000000000000000000000000000000000000000608482015260a4016109e0565b60008281526005602052604090206007810180546004919060ff191660018302179055507fca0909b6a575d31f318fe4f6dcc11334c453853c378dcd7fcb70a9ed8a9df5666001600460405161110b9291906135cd565b60405180910390a1600880549060006111238361366b565b90915550506008805460009081526004602052604090206001810194909455600290930180547fffffff0000000000000000000000000000000000000000ffffffffffffffffff1633690100000000000000000002179055915460069092019190915550565b3360009081526002602052604081205460ff1615156001036111ab5750600190565b50600090565b336111f15760405162461bcd60e51b815260206004820152601060248201526f24b73b30b634b21030b2323932b9b99760811b60448201526064016109e0565b3360009081526002602052604090205460ff16156112515760405162461bcd60e51b815260206004820152601660248201527f576f726b657220616c7265616479206578697374732e0000000000000000000060448201526064016109e0565b336000908152600260205260409020805460ff19166001179055565b600082815260046020526040812081805b600383015481101561131b57846001600160a01b03168360030182815481106112a9576112a96135fe565b60009182526020909120015464010000000090046001600160a01b03161480156112ff57508260030181815481106112e3576112e36135fe565b6000918252602090912001546301000000900460ff1615156001145b1561130957600191505b806113138161366b565b91505061127e565b509150505b92915050565b61132e613332565b6000805460ff909216600160b81b027fffffffffffffffff00ffffffffffffffffffffffffffffffffffffffffffffff909216919091179055565b336113a95760405162461bcd60e51b815260206004820152601060248201526f24b73b30b634b21030b2323932b9b99760811b60448201526064016109e0565b3360009081526003602052604090205460ff16156114095760405162461bcd60e51b815260206004820152601660248201527f436c69656e7420616c7265616479206578697374732e0000000000000000000060448201526064016109e0565b336000908152600360205260409020805460ff19166001179055565b8060018060008381526005602052604090206007015460ff16600b81111561144f5761144f6133f5565b146114aa5760405162461bcd60e51b815260206004820152602560248201527f436f6e7472616374206973206e6f7420696e2074686520636f727265637420736044820152643a30ba329760d91b60648201526084016109e0565b60008381526005602052604090206001015483906001600160a01b031633146115255760405162461bcd60e51b815260206004820152602760248201527f4f6e6c792074686520776f726b65722063616e2063616c6c20746869732066756044820152663731ba34b7b71760c91b60648201526084016109e0565b60008481526005602052604090206007810180546009919060ff191660018302179055507fca0909b6a575d31f318fe4f6dcc11334c453853c378dcd7fcb70a9ed8a9df56660016009604051610b289291906135cd565b600081815260046020526040812060038101546060929067ffffffffffffffff8111156115ab576115ab6135e8565b6040519080825280602002602001820160405280156115d4578160200160208202803683370190505b50905060005b6003830154811015611658578260030181815481106115fb576115fb6135fe565b9060005260206000200160000160049054906101000a90046001600160a01b031682828151811061162e5761162e6135fe565b6001600160a01b0390921660209283029190910190910152806116508161366b565b9150506115da565b509392505050565b611668613332565b6000805460ff909216600160c01b027fffffffffffffff00ffffffffffffffffffffffffffffffffffffffffffffffff909216919091179055565b6116ab613332565b6116b5600061338c565b565b336116f75760405162461bcd60e51b815260206004820152601060248201526f24b73b30b634b21030b2323932b9b99760811b60448201526064016109e0565b600980549060006117078361366b565b9091555050600954600090815260066020526040902080546001600160a01b03191633179055565b600080805b60095481108015611743575081155b15611785576000818152600660205260409020546001600160a01b03808616911603611773575060019392505050565b8061177d8161366b565b915050611734565b5060009392505050565b8060068060008381526005602052604090206007015460ff16600b8111156117b9576117b96133f5565b146118145760405162461bcd60e51b815260206004820152602560248201527f436f6e7472616374206973206e6f7420696e2074686520636f727265637420736044820152643a30ba329760d91b60648201526084016109e0565b6000838152600560209081526040808320600681015484526004909252909120600281015462ffffff66010000000000008204811663010000009092041611156118a95760078201805460ff191660089081179091556040517fca0909b6a575d31f318fe4f6dcc11334c453853c378dcd7fcb70a9ed8a9df5669161189c91600691906135cd565b60405180910390a16118ea565b6007828101805460ff1916821790556040517fca0909b6a575d31f318fe4f6dcc11334c453853c378dcd7fcb70a9ed8a9df56691610b2891600691906135cd565b5050505050565b8060008060008381526005602052604090206007015460ff16600b81111561191b5761191b6133f5565b146119765760405162461bcd60e51b815260206004820152602560248201527f436f6e7472616374206973206e6f7420696e2074686520636f727265637420736044820152643a30ba329760d91b60648201526084016109e0565b600083815260056020526040812090600782015460ff16600b81111561199e5761199e6133f5565b146119f95760405162461bcd60e51b815260206004820152602560248201527f54686520636f6e74726163742068617320616c7265616479206265656e20736960448201526433b732b21760d91b60648201526084016109e0565b600181810180546001600160a01b0319163317905560078201805460ff1916821790556040517fca0909b6a575d31f318fe4f6dcc11334c453853c378dcd7fcb70a9ed8a9df56691611a4e91600091906135cd565b60405180910390a150505050565b3360009081526003602052604090205460ff161515600114611ae65760405162461bcd60e51b815260206004820152602260248201527f4f6e6c7920636c69656e742063616e20637265617465206120636f6e7472616360448201527f742e00000000000000000000000000000000000000000000000000000000000060648201526084016109e0565b60003411611b5c5760405162461bcd60e51b815260206004820152602160248201527f546865207072696365206d7573742062652067726561746572207468616e203060448201527f2e0000000000000000000000000000000000000000000000000000000000000060648201526084016109e0565b60078054906000611b6c8361366b565b9190505550604051806101000160405280336001600160a01b0316815260200160006001600160a01b03168152602001828152602001848152602001838152602001348152602001600081526020016000600b811115611bce57611bce6133f5565b905260078054600090815260056020818152604092839020855181546001600160a01b039182166001600160a01b031991821617835592870151600180840180549290931691909416179055928501516002840155606085015160038401556080850151600484015560a08501519183019190915560c0840151600683015560e08401519282018054929392909160ff199091169083600b811115611c7557611c756133f5565b02179055505050505050565b8060028060008381526005602052604090206007015460ff16600b811115611cab57611cab6133f5565b14611d065760405162461bcd60e51b815260206004820152602560248201527f436f6e7472616374206973206e6f7420696e2074686520636f727265637420736044820152643a30ba329760d91b60648201526084016109e0565b60008381526005602052604090205483906001600160a01b03163314611d7e5760405162461bcd60e51b815260206004820152602760248201527f4f6e6c792074686520636c69656e742063616e2063616c6c20746869732066756044820152663731ba34b7b71760c91b60648201526084016109e0565b5050506000908152600560205260409020600701805460ff19166003179055565b6000828152600460205260408120815b6003820154811015611e1957836001600160a01b0316826003018281548110611dda57611dda6135fe565b60009182526020909120015464010000000090046001600160a01b031603611e0757600192505050611320565b80611e118161366b565b915050611daf565b506000949350505050565b60008181526005602052604090205481906001600160a01b0316331480611e6457506000818152600560205260409020600101546001600160a01b031633145b611ed65760405162461bcd60e51b815260206004820152603560248201527f4f6e6c792074686520636c69656e74206f722074686520776f726b657220636160448201527f6e2063616c6c20746869732066756e6374696f6e2e000000000000000000000060648201526084016109e0565b600082815260056020819052604090912090810154611f5d5760405162461bcd60e51b815260206004820152602a60248201527f54686973206a6f6220636f6e74726163742062616c616e63652069732065717560448201527f616c20746f207a65726f0000000000000000000000000000000000000000000060648201526084016109e0565b600581015460068201546009600784015460ff16600b811115611f8257611f826133f5565b1480611fa65750600a600784015460ff16600b811115611fa457611fa46133f5565b145b1561206057825460078401805460ff1916600b1790556000600585018190556040516001600160a01b0390921691829085908381818185875af1925050503d8060008114612010576040519150601f19603f3d011682016040523d82523d6000602084013e612015565b606091505b50509050806120595760405162461bcd60e51b815260206004820152601060248201526f2a3930b739b332b9103330b4b632b21760811b60448201526064016109e0565b50506118ea565b6003600784015460ff16600b81111561207b5761207b6133f5565b036122d2576001830154600080546001600160a01b03909216916120ab90606490600160b81b900460ff1661369a565b6120b69060016136bc565b6120c39060ff16856136d5565b604080516002808252606082018352929350600092909160208301908036833701905050905082816000815181106120fd576120fd6135fe565b6001600160a01b039283166020918202929092010152600180548351921691839190811061212d5761212d6135fe565b6001600160a01b03929092166020928302919091018201526040805160028082526060820183526000939192909183019080368337019050509050828160008151811061217c5761217c6135fe565b60209081029190910101526000546121a090606490600160b81b900460ff1661369a565b6121ad9060ff16876136d5565b816001815181106121c0576121c06135fe565b602090810291909101015260078701805460ff1916600b1790556000600588018190555b82518110156122c8576000838281518110612201576122016135fe565b60200260200101516001600160a01b0316838381518110612224576122246135fe565b602002602001015160405160006040518083038185875af1925050503d806000811461226c576040519150601f19603f3d011682016040523d82523d6000602084013e612271565b606091505b50509050806122b55760405162461bcd60e51b815260206004820152601060248201526f2a3930b739b332b9103330b4b632b21760811b60448201526064016109e0565b50806122c08161366b565b9150506121e4565b50505050506118ea565b60078084015460ff16600b8111156122ec576122ec6133f5565b036126ca576000818152600460205260408120600381015490916123118260026136ec565b67ffffffffffffffff811115612329576123296135e8565b604051908082528060200260200182016040528015612352578160200160208202803683370190505b50905060006123628360026136ec565b67ffffffffffffffff81111561237a5761237a6135e8565b6040519080825280602002602001820160405280156123a3578160200160208202803683370190505b5060078801805460ff1916600b179055600060058901819055600189015481549293506001600160a01b03169160649089906123eb90889060ff600160c01b909104166136ff565b6123f591906136d5565b6123ff91906136ff565b600080549192509061241d90606490600160b81b900460ff1661369a565b61242a9060ff168a6136d5565b9050600081612439848c613713565b6124439190613713565b90508386600081518110612459576124596135fe565b60200260200101906001600160a01b031690816001600160a01b031681525050808560008151811061248d5761248d6135fe565b60209081029190910101526001805487516001600160a01b0390911691889181106124ba576124ba6135fe565b60200260200101906001600160a01b031690816001600160a01b03168152505081856001815181106124ee576124ee6135fe565b60200260200101818152505060005b878110156125d45788600301818154811061251a5761251a6135fe565b60009182526020909120015464010000000090046001600160a01b0316876125438360026136ec565b81518110612553576125536135fe565b6001600160a01b0390921660209283029190910190910152600054606490612587908a9060ff600160c01b909104166136ff565b61259191906136ff565b61259b908c6136d5565b866125a78360026136ec565b815181106125b7576125b76135fe565b6020908102919091010152806125cc8161366b565b9150506124fd565b5060005b86518110156126bc5760008782815181106125f5576125f56135fe565b60200260200101516001600160a01b0316878381518110612618576126186135fe565b602002602001015160405160006040518083038185875af1925050503d8060008114612660576040519150601f19603f3d011682016040523d82523d6000602084013e612665565b606091505b50509050806126a95760405162461bcd60e51b815260206004820152601060248201526f2a3930b739b332b9103330b4b632b21760811b60448201526064016109e0565b50806126b48161366b565b9150506125d8565b5050505050505050506118ea565b6008600784015460ff16600b8111156126e5576126e56133f5565b03612ad05760008181526004602052604081206003810154909161270a8260026136ec565b67ffffffffffffffff811115612722576127226135e8565b60405190808252806020026020018201604052801561274b578160200160208202803683370190505b509050600061275b8360026136ec565b67ffffffffffffffff811115612773576127736135e8565b60405190808252806020026020018201604052801561279c578160200160208202803683370190505b5060078801805460ff1916600b179055600060058901819055885481549293506001600160a01b03169160649089906127e190889060ff600160c01b909104166136ff565b6127eb91906136d5565b6127f591906136ff565b600080549192509061281390606490600160b81b900460ff1661369a565b6128209060ff168a6136d5565b905060008161282f848c613713565b6128399190613713565b9050838660008151811061284f5761284f6135fe565b60200260200101906001600160a01b031690816001600160a01b0316815250508085600081518110612883576128836135fe565b60209081029190910101526001805487516001600160a01b0390911691889181106128b0576128b06135fe565b6001600160a01b03909216602092830291909101909101526000546128e29060649060ff600160b81b9091041661369a565b6128ef9060ff168b6136d5565b85600181518110612902576129026135fe565b60200260200101818152505060005b878110156129e85788600301818154811061292e5761292e6135fe565b60009182526020909120015464010000000090046001600160a01b0316876129578360026136ec565b81518110612967576129676135fe565b6001600160a01b039092166020928302919091019091015260005460649061299b908a9060ff600160c01b909104166136ff565b6129a5908d6136d5565b6129af91906136ff565b866129bb8360026136ec565b815181106129cb576129cb6135fe565b6020908102919091010152806129e08161366b565b915050612911565b5060005b86518110156126bc576000878281518110612a0957612a096135fe565b60200260200101516001600160a01b0316878381518110612a2c57612a2c6135fe565b602002602001015160405160006040518083038185875af1925050503d8060008114612a74576040519150601f19603f3d011682016040523d82523d6000602084013e612a79565b606091505b5050905080612abd5760405162461bcd60e51b815260206004820152601060248201526f2a3930b739b332b9103330b4b632b21760811b60448201526064016109e0565b5080612ac88161366b565b9150506129ec565b60405162461bcd60e51b815260206004820152601a60248201527f4e6f20616c6c6f77656420746f2070756c6c207061796d656e7400000000000060448201526064016109e0565b33612b585760405162461bcd60e51b815260206004820152601060248201526f24b73b30b634b21030b2323932b9b99760811b60448201526064016109e0565b3360009081526002602052604090205460ff161515600114612bbc5760405162461bcd60e51b815260206004820152601660248201527f576f726b657220646f6573206e6f742065786973742e0000000000000000000060448201526064016109e0565b336000908152600260205260409020805460ff19169055565b612bdd613332565b600080547fffffffffffffffffff000000ffffffffffffffffffffffffffffffffffffffff1660ff92909216600160a01b02919091179055565b8060018060008381526005602052604090206007015460ff16600b811115612c4157612c416133f5565b14612c9c5760405162461bcd60e51b815260206004820152602560248201527f436f6e7472616374206973206e6f7420696e2074686520636f727265637420736044820152643a30ba329760d91b60648201526084016109e0565b60008381526005602052604090206001015483906001600160a01b03163314612d175760405162461bcd60e51b815260206004820152602760248201527f4f6e6c792074686520776f726b65722063616e2063616c6c20746869732066756044820152663731ba34b7b71760c91b60648201526084016109e0565b60008481526005602052604090206007810180546002919060ff191660018302179055507fca0909b6a575d31f318fe4f6dcc11334c453853c378dcd7fcb70a9ed8a9df56660016002604051610b289291906135cd565b8160058060008381526005602052604090206007015460ff16600b811115612d9857612d986133f5565b14612df35760405162461bcd60e51b815260206004820152602560248201527f436f6e7472616374206973206e6f7420696e2074686520636f727265637420736044820152643a30ba329760d91b60648201526084016109e0565b60008481526005602090815260408083206006810154845260049092528220600381015491929091815b818162ffffff161015612e8657336001600160a01b0316846003018262ffffff1681548110612e4e57612e4e6135fe565b60009182526020909120015464010000000090046001600160a01b031603612e74578092505b80612e7e8161362a565b915050612e1d565b50826003018262ffffff1681548110612ea157612ea16135fe565b6000918252602090912001546301000000900460ff1615612f2a5760405162461bcd60e51b815260206004820152602260248201527f546865206a757279206d656d6265722068617320616c726561647920766f746560448201527f642e00000000000000000000000000000000000000000000000000000000000060648201526084016109e0565b6001836003018362ffffff1681548110612f4657612f466135fe565b60009182526020822001805492151563010000000263ff000000199093169290921790915560028401805462ffffff1691612f808361362a565b91906101000a81548162ffffff021916908362ffffff160217905550508615612fe3576002830180546301000000900462ffffff16906003612fc18361362a565b91906101000a81548162ffffff021916908362ffffff16021790555050613022565b6002830180546601000000000000900462ffffff169060066130048361362a565b91906101000a81548162ffffff021916908362ffffff160217905550505b600283015462ffffff168190036130805760078401805460ff191660069081179091556040517fca0909b6a575d31f318fe4f6dcc11334c453853c378dcd7fcb70a9ed8a9df5669161307791600591906135cd565b60405180910390a15b5050505050505050565b336130ca5760405162461bcd60e51b815260206004820152601060248201526f24b73b30b634b21030b2323932b9b99760811b60448201526064016109e0565b6130d33361172f565b15156001146131245760405162461bcd60e51b815260206004820152601460248201527f4a75727920646f6573206e6f742065786973742e00000000000000000000000060448201526064016109e0565b6000805b60095481108015613137575081155b1561318f57600081815260066020526040902054336001600160a01b039091160361317d57600081815260066020526040902080546001600160a01b0319169055600191505b806131878161366b565b915050613128565b50600980549060006131a083613726565b919050555050565b3360009081526003602052604081205460ff1615156001036111ab5750600190565b6131d2613332565b6001600160a01b03811661324e5760405162461bcd60e51b815260206004820152602660248201527f4f776e61626c653a206e6577206f776e657220697320746865207a65726f206160448201527f646472657373000000000000000000000000000000000000000000000000000060648201526084016109e0565b6132578161338c565b50565b60008281526005602052604081203382805b60038160ff1611613327576009546040805142602080830191909152448284015262ffffff8a1660608084019190915283518084039091018152608090920190925280519101206132bd919061373d565b6000818152600660205260409020546001600160a01b03169350915082158015906132f5575083546001600160a01b03848116911614155b8015613311575060018401546001600160a01b03848116911614155b613327578061331f81613751565b91505061326c565b509095945050505050565b6000546001600160a01b031633146116b55760405162461bcd60e51b815260206004820181905260248201527f4f776e61626c653a2063616c6c6572206973206e6f7420746865206f776e657260448201526064016109e0565b600080546001600160a01b038381166001600160a01b0319831681178455604051919092169283917f8be0079c531659141344cd1fd0a4f28419497f9722a3daafe3b4186f6b6457e09190a35050565b6000602082840312156133ee57600080fd5b5035919050565b634e487b7160e01b600052602160045260246000fd5b600c811061342957634e487b7160e01b600052602160045260246000fd5b9052565b60208101611320828461340b565b80356001600160a01b038116811461345257600080fd5b919050565b60006020828403121561346957600080fd5b6134728261343b565b9392505050565b6000806040838503121561348c57600080fd5b8235915061349c6020840161343b565b90509250929050565b6000610100820190506001600160a01b03808b168352808a166020840152508760408301528660608301528560808301528460a08301528360c08301526134ef60e083018461340b565b9998505050505050505050565b60006020828403121561350e57600080fd5b813560ff8116811461347257600080fd5b6020808252825182820181905260009190848201906040850190845b818110156135605783516001600160a01b03168352928401929184019160010161353b565b50909695505050505050565b60008060006060848603121561358157600080fd5b505081359360208301359350604090920135919050565b600080604083850312156135ab57600080fd5b82359150602083013580151581146135c257600080fd5b809150509250929050565b604081016135db828561340b565b613472602083018461340b565b634e487b7160e01b600052604160045260246000fd5b634e487b7160e01b600052603260045260246000fd5b634e487b7160e01b600052601160045260246000fd5b600062ffffff80831681810361364257613642613614565b6001019392505050565b600062ffffff82168061366157613661613614565b6000190192915050565b60006001820161367d5761367d613614565b5060010190565b634e487b7160e01b600052601260045260246000fd5b600060ff8316806136ad576136ad613684565b8060ff84160491505092915050565b60ff828116828216039081111561132057611320613614565b808202811582820484141761132057611320613614565b8082018082111561132057611320613614565b60008261370e5761370e613684565b500490565b8181038181111561132057611320613614565b60008161373557613735613614565b506000190190565b60008261374c5761374c613684565b500690565b600060ff821660ff810361376757613767613614565b6001019291505056fea26469706673582212203a52b05626eb2cb5e5a31948894b496881269ddf0d964456e79edfa58bfe64d464736f6c63430008120033",
  "devdoc": {
    "details": "This contract manage PACT dAPP with main functionallits to create a contract between client to hire a worker to perform a task,      and allows the worker to sign the contract, start working, request client validation,      and for the client to validate the work and allow payment. The client can also cancel the      contract before the worker signs, and the worker can cancel the contract at any time.      If a dispute arises, the client or worker can open a dispute and a jury will be selected randomly      to resolve the dispute. They resolve the dispute by voting on whether the worker or client is      in the right. The jury can also vote to split the payment between the client and worker.This contract is working in progress and is not yet complete. todo: add a function to limit time for the jury to vote and if not call a new jury to vote todo: add a function to limit time for the client to reveal the vote and if not call a new jury to vote todo: add payment splitter to split the payment between the client and worker todo: improve randomness of jury selection to pay less gas",
    "kind": "dev",
    "methods": {
      "addClient()": {
        "details": "Add a new client to the clients mapping."
      },
      "addJury()": {
        "details": "Add a new jury to the juryPool mapping."
      },
      "addWorker()": {
        "details": "Add a new worker to the workers mapping."
      },
      "cancelContractByClient(uint256)": {
        "details": "Allows the client to cancel the contract only if the worker didn't sign the contract yet.",
        "params": {
          "_contractId": "The ID of the contract to be canceled"
        }
      },
      "cancelContractByWorker(uint256)": {
        "details": "Allows the worker to cancel the contract",
        "params": {
          "_contractId": "The ID of the contract to be canceled"
        }
      },
      "constructor": {
        "details": "Constructor to set the protocol and jury fees, as well as the jury length",
        "params": {
          "_juryFee": "The jury fee percentage",
          "_juryLength": "The length of time for the jury vote",
          "_protocolFee": "The protocol fee percentage"
        }
      },
      "createContract(uint256,uint256,bytes32)": {
        "details": "Function to create a new contract sent by a client",
        "params": {
          "_deadline": "the deadline for the contract",
          "_hash": "the hash of the job bytes32 of title and description",
          "_today": "the current date"
        }
      },
      "getJuryMembers(uint256)": {
        "params": {
          "_disputeId": "The ID of the dispute to get jury members for"
        },
        "returns": {
          "_0": "An array of addresses representing the jury members for the dispute"
        }
      },
      "hasVoted(uint256,address)": {
        "params": {
          "_disputeId": "The ID of the dispute to check",
          "_juryAddress": "The address of the jury member to check for a vote"
        },
        "returns": {
          "_0": "true if the jury member has voted on the dispute, false otherwise"
        }
      },
      "isClient()": {
        "details": "Function to check if the caller is registered as a client",
        "returns": {
          "_0": "a boolean value indicating if the sender is a client (true) or not (false)"
        }
      },
      "isJury(address)": {
        "details": "Function to check if the caller is registered as a jury",
        "params": {
          "_address": "the address to be checked"
        },
        "returns": {
          "_0": "a boolean value indicating if the sender is a jury (true) or not (false)"
        }
      },
      "isJuryInDispute(uint256,address)": {
        "params": {
          "_disputeId": "The ID of the dispute to check",
          "_juryAddress": "The address to check for membership in the dispute's jury"
        },
        "returns": {
          "_0": "true if the address is a member of the dispute's jury, false otherwise"
        }
      },
      "isWorker()": {
        "details": "Function to check if the caller is registered as a worker",
        "returns": {
          "_0": "a boolean value indicating if the sender is a worker (true) or not (false)"
        }
      },
      "openDispute(uint256)": {
        "details": "Allows the client or worker to open a dispute",
        "params": {
          "_contractId": "The ID of the contract to open a dispute"
        }
      },
      "owner()": {
        "details": "Returns the address of the current owner."
      },
      "pullPayment(uint256)": {
        "details": "This function allows the client or worker to pull payment and split if jury dispute with jury Members and protocol share and the worker if he won the dispute.",
        "params": {
          "_contractId": "The ID of the contract."
        }
      },
      "removeClient()": {
        "details": "Function to remove a client from the clients mapping"
      },
      "removeJury()": {
        "details": "Function to remove a jury from the juryPool mapping"
      },
      "removeWorker()": {
        "details": "Function to remove a worker from the workers mapping"
      },
      "renounceOwnership()": {
        "details": "Leaves the contract without owner. It will not be possible to call `onlyOwner` functions anymore. Can only be called by the current owner. NOTE: Renouncing ownership will leave the contract without an owner, thereby removing any functionality that is only available to the owner."
      },
      "requestClientValidation(uint256)": {
        "details": "Allows the worker to request client validation to the client when the work is done",
        "params": {
          "_contractId": "The ID of the contract to be reviewed by the client."
        }
      },
      "revealState(uint256)": {
        "details": "This function reveals the state of a dispute and determines whether the client or the worker won the dispute.",
        "params": {
          "_contractId": "The ID of the contract."
        }
      },
      "selectJuryMember(uint256)": {
        "details": "Allows the client or worker to open a dispute",
        "params": {
          "_contractId": "The ID of the contract in dispute"
        }
      },
      "setIsFinishedAndAllowPayment(uint256)": {
        "details": "Allows the client to validate the work done by the worker",
        "params": {
          "_contractId": "The ID of the contract to be validated"
        }
      },
      "setJuryFee(uint8)": {
        "details": "Function to set the jury fee percentage.",
        "params": {
          "_juryFee": "The new jury fee percentage to be set."
        }
      },
      "setJuryLength(uint8)": {
        "details": "Function to set the length of time in days that a jury member can vote in a dispute.",
        "params": {
          "_juryLength": "The new length of time in days to be set."
        }
      },
      "setProtocolFee(uint8)": {
        "details": "Function to set the protocol fee percentage.",
        "params": {
          "_protocolFee": "The new protocol fee percentage to be set."
        }
      },
      "signContract(uint256)": {
        "details": "Allows the worker to take the job",
        "params": {
          "_contractId": "The ID of the contract to be signed"
        }
      },
      "transferOwnership(address)": {
        "details": "Transfers ownership of the contract to a new account (`newOwner`). Can only be called by the current owner."
      },
      "vote(uint256,bool)": {
        "details": "This function for the jury to vote for the dispute between the client and the worker",
        "params": {
          "_contractId": "The ID of the contract.",
          "_vote": "The vote of the jury member."
        }
      }
    },
    "title": "freelanceContract",
    "version": 1
  },
  "userdoc": {
    "kind": "user",
    "methods": {
      "addClient()": {
        "notice": "Caller should be a non-zero addresses and the client doesn't already exist."
      },
      "addJury()": {
        "notice": "Caller should be a non-zero addresses Increments the juryCounter, and adds the sender to the juryPool with the new jury ID."
      },
      "addWorker()": {
        "notice": "Caller should be a non-zero addresses and the worker doesn't already exist."
      },
      "getJuryMembers(uint256)": {
        "notice": "Returns the addresses of all the jury members for a given dispute"
      },
      "hasVoted(uint256,address)": {
        "notice": "Checks if a given jury member has voted on a specific dispute"
      },
      "isJuryInDispute(uint256,address)": {
        "notice": "Checks if a given address is a member of the jury for a particular dispute"
      },
      "removeClient()": {
        "notice": "Caller should be a non-zero addresses and the client already exists.If the client does not exist, the function will revert."
      },
      "removeWorker()": {
        "notice": "If the worker to be removed does not exist in the workers mapping, the function will revert."
      },
      "selectJuryMember(uint256)": {
        "notice": "Selects a jury member for a given contract's dispute"
      },
      "setJuryFee(uint8)": {
        "notice": "Only the owner of the contract can call this function."
      },
      "setJuryLength(uint8)": {
        "notice": "Only the owner of the contract can call this function."
      },
      "setProtocolFee(uint8)": {
        "notice": "Only the owner of the contract can call this function."
      }
    },
    "notice": "This contract is not audited and should not be used in production.",
    "version": 1
  },
  "storageLayout": {
    "storage": [
      {
        "astId": 7,
        "contract": "contracts/FreelanceContract.sol:freelanceContract",
        "label": "_owner",
        "offset": 0,
        "slot": "0",
        "type": "t_address"
      },
      {
        "astId": 1343,
        "contract": "contracts/FreelanceContract.sol:freelanceContract",
        "label": "juryLength",
        "offset": 20,
        "slot": "0",
        "type": "t_uint24"
      },
      {
        "astId": 1345,
        "contract": "contracts/FreelanceContract.sol:freelanceContract",
        "label": "protocolFee",
        "offset": 23,
        "slot": "0",
        "type": "t_uint8"
      },
      {
        "astId": 1347,
        "contract": "contracts/FreelanceContract.sol:freelanceContract",
        "label": "juryFee",
        "offset": 24,
        "slot": "0",
        "type": "t_uint8"
      },
      {
        "astId": 1349,
        "contract": "contracts/FreelanceContract.sol:freelanceContract",
        "label": "protocolAddress",
        "offset": 0,
        "slot": "1",
        "type": "t_address_payable"
      },
      {
        "astId": 1426,
        "contract": "contracts/FreelanceContract.sol:freelanceContract",
        "label": "workers",
        "offset": 0,
        "slot": "2",
        "type": "t_mapping(t_address,t_bool)"
      },
      {
        "astId": 1430,
        "contract": "contracts/FreelanceContract.sol:freelanceContract",
        "label": "clients",
        "offset": 0,
        "slot": "3",
        "type": "t_mapping(t_address,t_bool)"
      },
      {
        "astId": 1435,
        "contract": "contracts/FreelanceContract.sol:freelanceContract",
        "label": "disputes",
        "offset": 0,
        "slot": "4",
        "type": "t_mapping(t_uint256,t_struct(Dispute)1415_storage)"
      },
      {
        "astId": 1440,
        "contract": "contracts/FreelanceContract.sol:freelanceContract",
        "label": "contracts",
        "offset": 0,
        "slot": "5",
        "type": "t_mapping(t_uint256,t_struct(ContractPact)1398_storage)"
      },
      {
        "astId": 1444,
        "contract": "contracts/FreelanceContract.sol:freelanceContract",
        "label": "juryPool",
        "offset": 0,
        "slot": "6",
        "type": "t_mapping(t_uint256,t_address)"
      },
      {
        "astId": 1447,
        "contract": "contracts/FreelanceContract.sol:freelanceContract",
        "label": "contractCounter",
        "offset": 0,
        "slot": "7",
        "type": "t_uint256"
      },
      {
        "astId": 1450,
        "contract": "contracts/FreelanceContract.sol:freelanceContract",
        "label": "disputeCounter",
        "offset": 0,
        "slot": "8",
        "type": "t_uint256"
      },
      {
        "astId": 1453,
        "contract": "contracts/FreelanceContract.sol:freelanceContract",
        "label": "juryCounter",
        "offset": 0,
        "slot": "9",
        "type": "t_uint256"
      },
      {
        "astId": 1470,
        "contract": "contracts/FreelanceContract.sol:freelanceContract",
        "label": "contractStates",
        "offset": 0,
        "slot": "10",
        "type": "t_array(t_enum(ContractState)1466)dyn_storage"
      }
    ],
    "types": {
      "t_address": {
        "encoding": "inplace",
        "label": "address",
        "numberOfBytes": "20"
      },
      "t_address_payable": {
        "encoding": "inplace",
        "label": "address payable",
        "numberOfBytes": "20"
      },
      "t_array(t_enum(ContractState)1466)dyn_storage": {
        "base": "t_enum(ContractState)1466",
        "encoding": "dynamic_array",
        "label": "enum freelanceContract.ContractState[]",
        "numberOfBytes": "32"
      },
      "t_array(t_struct(juryMember)1422_storage)dyn_storage": {
        "base": "t_struct(juryMember)1422_storage",
        "encoding": "dynamic_array",
        "label": "struct freelanceContract.juryMember[]",
        "numberOfBytes": "32"
      },
      "t_bool": {
        "encoding": "inplace",
        "label": "bool",
        "numberOfBytes": "1"
      },
      "t_bytes32": {
        "encoding": "inplace",
        "label": "bytes32",
        "numberOfBytes": "32"
      },
      "t_enum(ContractState)1466": {
        "encoding": "inplace",
        "label": "enum freelanceContract.ContractState",
        "numberOfBytes": "1"
      },
      "t_mapping(t_address,t_bool)": {
        "encoding": "mapping",
        "key": "t_address",
        "label": "mapping(address => bool)",
        "numberOfBytes": "32",
        "value": "t_bool"
      },
      "t_mapping(t_uint256,t_address)": {
        "encoding": "mapping",
        "key": "t_uint256",
        "label": "mapping(uint256 => address)",
        "numberOfBytes": "32",
        "value": "t_address"
      },
      "t_mapping(t_uint256,t_struct(ContractPact)1398_storage)": {
        "encoding": "mapping",
        "key": "t_uint256",
        "label": "mapping(uint256 => struct freelanceContract.ContractPact)",
        "numberOfBytes": "32",
        "value": "t_struct(ContractPact)1398_storage"
      },
      "t_mapping(t_uint256,t_struct(Dispute)1415_storage)": {
        "encoding": "mapping",
        "key": "t_uint256",
        "label": "mapping(uint256 => struct freelanceContract.Dispute)",
        "numberOfBytes": "32",
        "value": "t_struct(Dispute)1415_storage"
      },
      "t_struct(ContractPact)1398_storage": {
        "encoding": "inplace",
        "label": "struct freelanceContract.ContractPact",
        "members": [
          {
            "astId": 1382,
            "contract": "contracts/FreelanceContract.sol:freelanceContract",
            "label": "client",
            "offset": 0,
            "slot": "0",
            "type": "t_address_payable"
          },
          {
            "astId": 1384,
            "contract": "contracts/FreelanceContract.sol:freelanceContract",
            "label": "worker",
            "offset": 0,
            "slot": "1",
            "type": "t_address_payable"
          },
          {
            "astId": 1386,
            "contract": "contracts/FreelanceContract.sol:freelanceContract",
            "label": "hashJob",
            "offset": 0,
            "slot": "2",
            "type": "t_bytes32"
          },
          {
            "astId": 1388,
            "contract": "contracts/FreelanceContract.sol:freelanceContract",
            "label": "deadline",
            "offset": 0,
            "slot": "3",
            "type": "t_uint256"
          },
          {
            "astId": 1390,
            "contract": "contracts/FreelanceContract.sol:freelanceContract",
            "label": "createAt",
            "offset": 0,
            "slot": "4",
            "type": "t_uint256"
          },
          {
            "astId": 1392,
            "contract": "contracts/FreelanceContract.sol:freelanceContract",
            "label": "price",
            "offset": 0,
            "slot": "5",
            "type": "t_uint256"
          },
          {
            "astId": 1394,
            "contract": "contracts/FreelanceContract.sol:freelanceContract",
            "label": "disputeId",
            "offset": 0,
            "slot": "6",
            "type": "t_uint256"
          },
          {
            "astId": 1397,
            "contract": "contracts/FreelanceContract.sol:freelanceContract",
            "label": "state",
            "offset": 0,
            "slot": "7",
            "type": "t_enum(ContractState)1466"
          }
        ],
        "numberOfBytes": "256"
      },
      "t_struct(Dispute)1415_storage": {
        "encoding": "inplace",
        "label": "struct freelanceContract.Dispute",
        "members": [
          {
            "astId": 1400,
            "contract": "contracts/FreelanceContract.sol:freelanceContract",
            "label": "disputeId",
            "offset": 0,
            "slot": "0",
            "type": "t_uint256"
          },
          {
            "astId": 1402,
            "contract": "contracts/FreelanceContract.sol:freelanceContract",
            "label": "contractId",
            "offset": 0,
            "slot": "1",
            "type": "t_uint256"
          },
          {
            "astId": 1404,
            "contract": "contracts/FreelanceContract.sol:freelanceContract",
            "label": "totalVoteCount",
            "offset": 0,
            "slot": "2",
            "type": "t_uint24"
          },
          {
            "astId": 1406,
            "contract": "contracts/FreelanceContract.sol:freelanceContract",
            "label": "clientVoteCount",
            "offset": 3,
            "slot": "2",
            "type": "t_uint24"
          },
          {
            "astId": 1408,
            "contract": "contracts/FreelanceContract.sol:freelanceContract",
            "label": "workerVoteCount",
            "offset": 6,
            "slot": "2",
            "type": "t_uint24"
          },
          {
            "astId": 1410,
            "contract": "contracts/FreelanceContract.sol:freelanceContract",
            "label": "disputeInitiator",
            "offset": 9,
            "slot": "2",
            "type": "t_address"
          },
          {
            "astId": 1414,
            "contract": "contracts/FreelanceContract.sol:freelanceContract",
            "label": "juryMembers",
            "offset": 0,
            "slot": "3",
            "type": "t_array(t_struct(juryMember)1422_storage)dyn_storage"
          }
        ],
        "numberOfBytes": "128"
      },
      "t_struct(juryMember)1422_storage": {
        "encoding": "inplace",
        "label": "struct freelanceContract.juryMember",
        "members": [
          {
            "astId": 1417,
            "contract": "contracts/FreelanceContract.sol:freelanceContract",
            "label": "juryId",
            "offset": 0,
            "slot": "0",
            "type": "t_uint24"
          },
          {
            "astId": 1419,
            "contract": "contracts/FreelanceContract.sol:freelanceContract",
            "label": "hasVoted",
            "offset": 3,
            "slot": "0",
            "type": "t_bool"
          },
          {
            "astId": 1421,
            "contract": "contracts/FreelanceContract.sol:freelanceContract",
            "label": "juryAddress",
            "offset": 4,
            "slot": "0",
            "type": "t_address_payable"
          }
        ],
        "numberOfBytes": "32"
      },
      "t_uint24": {
        "encoding": "inplace",
        "label": "uint24",
        "numberOfBytes": "3"
      },
      "t_uint256": {
        "encoding": "inplace",
        "label": "uint256",
        "numberOfBytes": "32"
      },
      "t_uint8": {
        "encoding": "inplace",
        "label": "uint8",
        "numberOfBytes": "1"
      }
    }
  }
}