{
  "address": "0x5FbDB2315678afecb367f032d93F642f64180aa3",
  "abi": [
    {
      "anonymous": false,
      "inputs": [
        {
          "indexed": false,
          "internalType": "uint256",
          "name": "contractId",
          "type": "uint256"
        },
        {
          "indexed": false,
          "internalType": "address",
          "name": "client",
          "type": "address"
        },
        {
          "indexed": false,
          "internalType": "address",
          "name": "worker",
          "type": "address"
        },
        {
          "indexed": false,
          "internalType": "bytes32",
          "name": "hashJob",
          "type": "bytes32"
        },
        {
          "indexed": false,
          "internalType": "uint256",
          "name": "createAt",
          "type": "uint256"
        },
        {
          "indexed": false,
          "internalType": "uint256",
          "name": "deadline",
          "type": "uint256"
        },
        {
          "indexed": false,
          "internalType": "uint256",
          "name": "price",
          "type": "uint256"
        },
        {
          "indexed": false,
          "internalType": "enum FreelanceContract.ContractState",
          "name": "state",
          "type": "uint8"
        }
      ],
      "name": "ContractCreated",
      "type": "event"
    },
    {
      "anonymous": false,
      "inputs": [
        {
          "indexed": false,
          "internalType": "uint256",
          "name": "contractId",
          "type": "uint256"
        }
      ],
      "name": "ContractIsFinished",
      "type": "event"
    },
    {
      "anonymous": false,
      "inputs": [
        {
          "indexed": false,
          "internalType": "uint256",
          "name": "contractId",
          "type": "uint256"
        },
        {
          "indexed": false,
          "internalType": "address",
          "name": "worker",
          "type": "address"
        }
      ],
      "name": "ContractReviewRequested",
      "type": "event"
    },
    {
      "anonymous": false,
      "inputs": [
        {
          "indexed": false,
          "internalType": "uint256",
          "name": "contractId",
          "type": "uint256"
        },
        {
          "indexed": false,
          "internalType": "address",
          "name": "worker",
          "type": "address"
        }
      ],
      "name": "ContractSigned",
      "type": "event"
    },
    {
      "anonymous": false,
      "inputs": [
        {
          "indexed": false,
          "internalType": "enum FreelanceContract.ContractState",
          "name": "previousStatus",
          "type": "uint8"
        },
        {
          "indexed": false,
          "internalType": "enum FreelanceContract.ContractState",
          "name": "newStatus",
          "type": "uint8"
        }
      ],
      "name": "ContractStateChange",
      "type": "event"
    },
    {
      "anonymous": false,
      "inputs": [
        {
          "indexed": false,
          "internalType": "uint256",
          "name": "disputeId",
          "type": "uint256"
        },
        {
          "indexed": false,
          "internalType": "uint256",
          "name": "contractId",
          "type": "uint256"
        },
        {
          "indexed": false,
          "internalType": "address",
          "name": "disputeInitiator",
          "type": "address"
        }
      ],
      "name": "DisputeCreated",
      "type": "event"
    },
    {
      "anonymous": false,
      "inputs": [
        {
          "indexed": false,
          "internalType": "enum FreelanceContract.DisputeState",
          "name": "previousStatus",
          "type": "uint8"
        },
        {
          "indexed": false,
          "internalType": "enum FreelanceContract.DisputeState",
          "name": "newStatus",
          "type": "uint8"
        }
      ],
      "name": "DisputeStateChange",
      "type": "event"
    },
    {
      "anonymous": false,
      "inputs": [
        {
          "indexed": false,
          "internalType": "uint256",
          "name": "disputeId",
          "type": "uint256"
        }
      ],
      "name": "JuryVote",
      "type": "event"
    },
    {
      "inputs": [],
      "name": "addClient",
      "outputs": [],
      "stateMutability": "nonpayable",
      "type": "function"
    },
    {
      "inputs": [],
      "name": "addJury",
      "outputs": [],
      "stateMutability": "nonpayable",
      "type": "function"
    },
    {
      "inputs": [],
      "name": "addWorker",
      "outputs": [],
      "stateMutability": "nonpayable",
      "type": "function"
    },
    {
      "inputs": [
        {
          "internalType": "uint256",
          "name": "_contractId",
          "type": "uint256"
        }
      ],
      "name": "cancelContractByClient",
      "outputs": [],
      "stateMutability": "nonpayable",
      "type": "function"
    },
    {
      "inputs": [
        {
          "internalType": "uint256",
          "name": "_contractId",
          "type": "uint256"
        }
      ],
      "name": "cancelContractByWorker",
      "outputs": [],
      "stateMutability": "nonpayable",
      "type": "function"
    },
    {
      "inputs": [
        {
          "internalType": "address",
          "name": "",
          "type": "address"
        }
      ],
      "name": "clients",
      "outputs": [
        {
          "internalType": "bool",
          "name": "",
          "type": "bool"
        }
      ],
      "stateMutability": "view",
      "type": "function"
    },
    {
      "inputs": [],
      "name": "contractCounter",
      "outputs": [
        {
          "internalType": "uint256",
          "name": "",
          "type": "uint256"
        }
      ],
      "stateMutability": "view",
      "type": "function"
    },
    {
      "inputs": [
        {
          "internalType": "uint256",
          "name": "",
          "type": "uint256"
        }
      ],
      "name": "contractStates",
      "outputs": [
        {
          "internalType": "enum FreelanceContract.ContractState",
          "name": "",
          "type": "uint8"
        }
      ],
      "stateMutability": "view",
      "type": "function"
    },
    {
      "inputs": [
        {
          "internalType": "uint256",
          "name": "",
          "type": "uint256"
        }
      ],
      "name": "contracts",
      "outputs": [
        {
          "internalType": "address",
          "name": "client",
          "type": "address"
        },
        {
          "internalType": "address",
          "name": "worker",
          "type": "address"
        },
        {
          "internalType": "bytes32",
          "name": "hashJob",
          "type": "bytes32"
        },
        {
          "internalType": "uint256",
          "name": "deadline",
          "type": "uint256"
        },
        {
          "internalType": "uint256",
          "name": "createAt",
          "type": "uint256"
        },
        {
          "internalType": "uint256",
          "name": "price",
          "type": "uint256"
        },
        {
          "internalType": "enum FreelanceContract.ContractState",
          "name": "state",
          "type": "uint8"
        }
      ],
      "stateMutability": "view",
      "type": "function"
    },
    {
      "inputs": [
        {
          "internalType": "uint256",
          "name": "_deadline",
          "type": "uint256"
        },
        {
          "internalType": "uint256",
          "name": "_today",
          "type": "uint256"
        },
        {
          "internalType": "bytes32",
          "name": "_hash",
          "type": "bytes32"
        }
      ],
      "name": "createContract",
      "outputs": [],
      "stateMutability": "payable",
      "type": "function"
    },
    {
      "inputs": [],
      "name": "disputeCounter",
      "outputs": [
        {
          "internalType": "uint256",
          "name": "",
          "type": "uint256"
        }
      ],
      "stateMutability": "view",
      "type": "function"
    },
    {
      "inputs": [
        {
          "internalType": "uint256",
          "name": "",
          "type": "uint256"
        }
      ],
      "name": "disputeStates",
      "outputs": [
        {
          "internalType": "enum FreelanceContract.DisputeState",
          "name": "",
          "type": "uint8"
        }
      ],
      "stateMutability": "view",
      "type": "function"
    },
    {
      "inputs": [
        {
          "internalType": "uint256",
          "name": "",
          "type": "uint256"
        }
      ],
      "name": "disputes",
      "outputs": [
        {
          "internalType": "uint256",
          "name": "disputeId",
          "type": "uint256"
        },
        {
          "internalType": "uint256",
          "name": "contractId",
          "type": "uint256"
        },
        {
          "internalType": "address",
          "name": "disputeInitiator",
          "type": "address"
        },
        {
          "internalType": "uint256",
          "name": "totalVoteCount",
          "type": "uint256"
        },
        {
          "internalType": "uint256",
          "name": "clientVoteCount",
          "type": "uint256"
        },
        {
          "internalType": "uint256",
          "name": "workerVoteCount",
          "type": "uint256"
        },
        {
          "internalType": "enum FreelanceContract.DisputeState",
          "name": "state",
          "type": "uint8"
        }
      ],
      "stateMutability": "view",
      "type": "function"
    },
    {
      "inputs": [
        {
          "internalType": "uint256",
          "name": "_contractId",
          "type": "uint256"
        }
      ],
      "name": "getContractDetails",
      "outputs": [
        {
          "internalType": "uint256",
          "name": "contractId",
          "type": "uint256"
        },
        {
          "internalType": "address",
          "name": "client",
          "type": "address"
        },
        {
          "internalType": "address",
          "name": "worker",
          "type": "address"
        },
        {
          "internalType": "bytes32",
          "name": "hashJob",
          "type": "bytes32"
        },
        {
          "internalType": "uint256",
          "name": "deadline",
          "type": "uint256"
        },
        {
          "internalType": "uint256",
          "name": "price",
          "type": "uint256"
        }
      ],
      "stateMutability": "view",
      "type": "function"
    },
    {
      "inputs": [
        {
          "internalType": "uint256",
          "name": "_disputeId",
          "type": "uint256"
        }
      ],
      "name": "getDisputeJury",
      "outputs": [
        {
          "internalType": "address[]",
          "name": "juryList",
          "type": "address[]"
        }
      ],
      "stateMutability": "view",
      "type": "function"
    },
    {
      "inputs": [],
      "name": "isClient",
      "outputs": [
        {
          "internalType": "bool",
          "name": "",
          "type": "bool"
        }
      ],
      "stateMutability": "view",
      "type": "function"
    },
    {
      "inputs": [],
      "name": "isWorker",
      "outputs": [
        {
          "internalType": "bool",
          "name": "",
          "type": "bool"
        }
      ],
      "stateMutability": "view",
      "type": "function"
    },
    {
      "inputs": [],
      "name": "juryCounter",
      "outputs": [
        {
          "internalType": "uint256",
          "name": "",
          "type": "uint256"
        }
      ],
      "stateMutability": "view",
      "type": "function"
    },
    {
      "inputs": [
        {
          "internalType": "uint256",
          "name": "",
          "type": "uint256"
        }
      ],
      "name": "juryPool",
      "outputs": [
        {
          "internalType": "address",
          "name": "",
          "type": "address"
        }
      ],
      "stateMutability": "view",
      "type": "function"
    },
    {
      "inputs": [
        {
          "internalType": "uint256",
          "name": "_contractId",
          "type": "uint256"
        }
      ],
      "name": "openDispute",
      "outputs": [],
      "stateMutability": "nonpayable",
      "type": "function"
    },
    {
      "inputs": [
        {
          "internalType": "uint256",
          "name": "_upper",
          "type": "uint256"
        }
      ],
      "name": "random",
      "outputs": [
        {
          "internalType": "uint256",
          "name": "",
          "type": "uint256"
        }
      ],
      "stateMutability": "nonpayable",
      "type": "function"
    },
    {
      "inputs": [],
      "name": "randomResult",
      "outputs": [
        {
          "internalType": "uint256",
          "name": "",
          "type": "uint256"
        }
      ],
      "stateMutability": "view",
      "type": "function"
    },
    {
      "inputs": [
        {
          "internalType": "uint256",
          "name": "_contractId",
          "type": "uint256"
        }
      ],
      "name": "setIsFinishedAndAllowPayment",
      "outputs": [],
      "stateMutability": "nonpayable",
      "type": "function"
    },
    {
      "inputs": [
        {
          "internalType": "uint256",
          "name": "_contractId",
          "type": "uint256"
        }
      ],
      "name": "signContract",
      "outputs": [],
      "stateMutability": "nonpayable",
      "type": "function"
    },
    {
      "inputs": [
        {
          "internalType": "uint256",
          "name": "_disputeId",
          "type": "uint256"
        },
        {
          "internalType": "bool",
          "name": "_vote",
          "type": "bool"
        }
      ],
      "name": "vote",
      "outputs": [],
      "stateMutability": "nonpayable",
      "type": "function"
    },
    {
      "inputs": [
        {
          "internalType": "address",
          "name": "",
          "type": "address"
        }
      ],
      "name": "workers",
      "outputs": [
        {
          "internalType": "bool",
          "name": "",
          "type": "bool"
        }
      ],
      "stateMutability": "view",
      "type": "function"
    }
  ],
  "transactionHash": "0xcec56d97b4650542509d51c19bc7455b049ffac50db291121563eef34d464b3f",
  "args": [],
  "numDeployments": 1,
  "solcInputHash": "4e6f8b26ce4988c662998d37282a17e6",
  "bytecode": "0x608060405260006006556000600755600060085534801561001f57600080fd5b506130dd8061002f6000396000f3fe6080604052600436106101815760003560e01c806361eed2a9116100d1578063a3626ece1161008a578063c9d27afe11610064578063c9d27afe14610596578063e421fbca146105bf578063ef2c02a8146105ea578063fee6fb261461061557610181565b8063a3626ece14610514578063b01f061714610530578063b863bd371461055957610181565b806361eed2a9146103f257806374b4f03a1461042f5780637d36f4d3146104465780639537e8d114610471578063985835901461049a5780639ed854da146104d757610181565b80634048a2571161013e5780634d6d6a9c116101185780634d6d6a9c1461032d578063533aa4741461036f578063564a565d146103865780635823440f146103c957610181565b80634048a2571461028257806342619f66146102bf578063474da79a146102ea57610181565b806305f744c114610186578063067bd3b4146101af5780631d4c6e6d146101da57806327d00fb0146102175780632a2520a7146102405780632b254c771461026b575b600080fd5b34801561019257600080fd5b506101ad60048036038101906101a89190612210565b610652565b005b3480156101bb57600080fd5b506101c4610881565b6040516101d1919061224c565b60405180910390f35b3480156101e657600080fd5b5061020160048036038101906101fc9190612210565b610887565b60405161020e91906122de565b60405180910390f35b34801561022357600080fd5b5061023e60048036038101906102399190612210565b6108bb565b005b34801561024c57600080fd5b50610255610d25565b6040516102629190612314565b60405180910390f35b34801561027757600080fd5b50610280610d90565b005b34801561028e57600080fd5b506102a960048036038101906102a4919061238d565b610eeb565b6040516102b69190612314565b60405180910390f35b3480156102cb57600080fd5b506102d4610f0b565b6040516102e1919061224c565b60405180910390f35b3480156102f657600080fd5b50610311600480360381019061030c9190612210565b610f11565b60405161032497969594939291906123e2565b60405180910390f35b34801561033957600080fd5b50610354600480360381019061034f9190612210565b610fa0565b60405161036696959493929190612451565b60405180910390f35b34801561037b57600080fd5b50610384611030565b005b34801561039257600080fd5b506103ad60048036038101906103a89190612210565b61118c565b6040516103c097969594939291906124fa565b60405180910390f35b3480156103d557600080fd5b506103f060048036038101906103eb9190612210565b6111fb565b005b3480156103fe57600080fd5b506104196004803603810190610414919061238d565b6113b2565b6040516104269190612314565b60405180910390f35b34801561043b57600080fd5b506104446113d2565b005b34801561045257600080fd5b5061045b6114af565b604051610468919061224c565b60405180910390f35b34801561047d57600080fd5b5061049860048036038101906104939190612210565b6114b5565b005b3480156104a657600080fd5b506104c160048036038101906104bc9190612210565b6116ba565b6040516104ce9190612569565b60405180910390f35b3480156104e357600080fd5b506104fe60048036038101906104f99190612210565b6116ed565b60405161050b9190612642565b60405180910390f35b61052e60048036038101906105299190612690565b611898565b005b34801561053c57600080fd5b5061055760048036038101906105529190612210565b611b02565b005b34801561056557600080fd5b50610580600480360381019061057b9190612210565b611cb5565b60405161058d919061224c565b60405180910390f35b3480156105a257600080fd5b506105bd60048036038101906105b8919061270f565b611d03565b005b3480156105cb57600080fd5b506105d4612130565b6040516105e1919061224c565b60405180910390f35b3480156105f657600080fd5b506105ff612136565b60405161060c9190612314565b60405180910390f35b34801561062157600080fd5b5061063c60048036038101906106379190612210565b6121a1565b604051610649919061274f565b60405180910390f35b80600080600a81111561066857610667612267565b5b6004600084815260200190815260200160002060060160009054906101000a900460ff16600a81111561069e5761069d612267565b5b146106de576040517f08c379a00000000000000000000000000000000000000000000000000000000081526004016106d5906127ed565b60405180910390fd5b823373ffffffffffffffffffffffffffffffffffffffff166004600083815260200190815260200160002060000160009054906101000a900473ffffffffffffffffffffffffffffffffffffffff1673ffffffffffffffffffffffffffffffffffffffff1614610783576040517f08c379a000000000000000000000000000000000000000000000000000000000815260040161077a9061287f565b60405180910390fd5b60006004600086815260200190815260200160002090506000600a8111156107ae576107ad612267565b5b8160060160009054906101000a900460ff16600a8111156107d2576107d1612267565b5b14610812576040517f08c379a000000000000000000000000000000000000000000000000000000000815260040161080990612911565b60405180910390fd5b60098160060160006101000a81548160ff0219169083600a81111561083a57610839612267565b5b02179055507fca0909b6a575d31f318fe4f6dcc11334c453853c378dcd7fcb70a9ed8a9df56660006009604051610872929190612931565b60405180910390a15050505050565b60065481565b6009818154811061089757600080fd5b9060005260206000209060209182820401919006915054906101000a900460ff1681565b80600180600a8111156108d1576108d0612267565b5b6004600084815260200190815260200160002060060160009054906101000a900460ff16600a81111561090757610906612267565b5b14610947576040517f08c379a000000000000000000000000000000000000000000000000000000000815260040161093e906127ed565b60405180910390fd5b823373ffffffffffffffffffffffffffffffffffffffff166004600083815260200190815260200160002060000160009054906101000a900473ffffffffffffffffffffffffffffffffffffffff1673ffffffffffffffffffffffffffffffffffffffff161480610a1957503373ffffffffffffffffffffffffffffffffffffffff166004600083815260200190815260200160002060010160009054906101000a900473ffffffffffffffffffffffffffffffffffffffff1673ffffffffffffffffffffffffffffffffffffffff16145b610a58576040517f08c379a0000000000000000000000000000000000000000000000000000000008152600401610a4f906129cc565b60405180910390fd5b600060046000868152602001908152602001600020905060048160060160006101000a81548160ff0219169083600a811115610a9757610a96612267565b5b02179055507fca0909b6a575d31f318fe4f6dcc11334c453853c378dcd7fcb70a9ed8a9df56660016004604051610acf929190612931565b60405180910390a160076000815480929190610aea90612a1b565b919050555060006003600060075481526020019081526020016000209050858160010181905550338160020160006101000a81548173ffffffffffffffffffffffffffffffffffffffff021916908373ffffffffffffffffffffffffffffffffffffffff16021790555060008160070160006101000a81548160ff02191690836003811115610b7c57610b7b612267565b5b02179055506000805b600c811015610d1b576000610b9b600854611cb5565b905060006005600083815260200190815260200160002060009054906101000a900473ffffffffffffffffffffffffffffffffffffffff1690508560000160009054906101000a900473ffffffffffffffffffffffffffffffffffffffff1673ffffffffffffffffffffffffffffffffffffffff168173ffffffffffffffffffffffffffffffffffffffff1614158015610c8557508560010160009054906101000a900473ffffffffffffffffffffffffffffffffffffffff1673ffffffffffffffffffffffffffffffffffffffff168173ffffffffffffffffffffffffffffffffffffffff1614155b15610cf75760008560060160008373ffffffffffffffffffffffffffffffffffffffff1673ffffffffffffffffffffffffffffffffffffffff16815260200190815260200160002060006101000a81548160ff0219169083151502179055508380610cef90612a1b565b945050610d06565b8280610d0290612a63565b9350505b50508080610d1390612a1b565b915050610b85565b5050505050505050565b600060011515600160003373ffffffffffffffffffffffffffffffffffffffff1673ffffffffffffffffffffffffffffffffffffffff16815260200190815260200160002060009054906101000a900460ff16151503610d885760019050610d8d565b600090505b90565b600073ffffffffffffffffffffffffffffffffffffffff163373ffffffffffffffffffffffffffffffffffffffff1603610dff576040517f08c379a0000000000000000000000000000000000000000000000000000000008152600401610df690612ad8565b60405180910390fd5b60001515600160003373ffffffffffffffffffffffffffffffffffffffff1673ffffffffffffffffffffffffffffffffffffffff16815260200190815260200160002060009054906101000a900460ff16151514610e92576040517f08c379a0000000000000000000000000000000000000000000000000000000008152600401610e8990612b44565b60405180910390fd5b60018060003373ffffffffffffffffffffffffffffffffffffffff1673ffffffffffffffffffffffffffffffffffffffff16815260200190815260200160002060006101000a81548160ff021916908315150217905550565b60016020528060005260406000206000915054906101000a900460ff1681565b60005481565b60046020528060005260406000206000915090508060000160009054906101000a900473ffffffffffffffffffffffffffffffffffffffff16908060010160009054906101000a900473ffffffffffffffffffffffffffffffffffffffff16908060020154908060030154908060040154908060050154908060060160009054906101000a900460ff16905087565b60008060008060008060006004600089815260200190815260200160002090508796508060000160009054906101000a900473ffffffffffffffffffffffffffffffffffffffff1695508060010160009054906101000a900473ffffffffffffffffffffffffffffffffffffffff1694508060020154935080600301549250806005015491505091939550919395565b600073ffffffffffffffffffffffffffffffffffffffff163373ffffffffffffffffffffffffffffffffffffffff160361109f576040517f08c379a000000000000000000000000000000000000000000000000000000000815260040161109690612ad8565b60405180910390fd5b60001515600260003373ffffffffffffffffffffffffffffffffffffffff1673ffffffffffffffffffffffffffffffffffffffff16815260200190815260200160002060009054906101000a900460ff16151514611132576040517f08c379a000000000000000000000000000000000000000000000000000000000815260040161112990612bb0565b60405180910390fd5b6001600260003373ffffffffffffffffffffffffffffffffffffffff1673ffffffffffffffffffffffffffffffffffffffff16815260200190815260200160002060006101000a81548160ff021916908315150217905550565b60036020528060005260406000206000915090508060000154908060010154908060020160009054906101000a900473ffffffffffffffffffffffffffffffffffffffff16908060030154908060040154908060050154908060070160009054906101000a900460ff16905087565b80600180600a81111561121157611210612267565b5b6004600084815260200190815260200160002060060160009054906101000a900460ff16600a81111561124757611246612267565b5b14611287576040517f08c379a000000000000000000000000000000000000000000000000000000000815260040161127e906127ed565b60405180910390fd5b823373ffffffffffffffffffffffffffffffffffffffff166004600083815260200190815260200160002060010160009054906101000a900473ffffffffffffffffffffffffffffffffffffffff1673ffffffffffffffffffffffffffffffffffffffff161461132c576040517f08c379a000000000000000000000000000000000000000000000000000000000815260040161132390612c42565b60405180910390fd5b600060046000868152602001908152602001600020905060088160060160006101000a81548160ff0219169083600a81111561136b5761136a612267565b5b02179055507fca0909b6a575d31f318fe4f6dcc11334c453853c378dcd7fcb70a9ed8a9df566600160086040516113a3929190612931565b60405180910390a15050505050565b60026020528060005260406000206000915054906101000a900460ff1681565b600073ffffffffffffffffffffffffffffffffffffffff163373ffffffffffffffffffffffffffffffffffffffff1603611441576040517f08c379a000000000000000000000000000000000000000000000000000000000815260040161143890612ad8565b60405180910390fd5b6008600081548092919061145490612a1b565b91905055503360056000600854815260200190815260200160002060006101000a81548173ffffffffffffffffffffffffffffffffffffffff021916908373ffffffffffffffffffffffffffffffffffffffff160217905550565b60075481565b80600080600a8111156114cb576114ca612267565b5b6004600084815260200190815260200160002060060160009054906101000a900460ff16600a81111561150157611500612267565b5b14611541576040517f08c379a0000000000000000000000000000000000000000000000000000000008152600401611538906127ed565b60405180910390fd5b60006004600085815260200190815260200160002090506000600a81111561156c5761156b612267565b5b8160060160009054906101000a900460ff16600a8111156115905761158f612267565b5b146115d0576040517f08c379a00000000000000000000000000000000000000000000000000000000081526004016115c790612911565b60405180910390fd5b338160010160006101000a81548173ffffffffffffffffffffffffffffffffffffffff021916908373ffffffffffffffffffffffffffffffffffffffff16021790555060018160060160006101000a81548160ff0219169083600a81111561163b5761163a612267565b5b02179055507fcd3b1fcca80f9caae633c3e13546995d3810e561957af92839f070c46571942c8433604051611671929190612c62565b60405180910390a17fca0909b6a575d31f318fe4f6dcc11334c453853c378dcd7fcb70a9ed8a9df566600060016040516116ac929190612931565b60405180910390a150505050565b60056020528060005260406000206000915054906101000a900473ffffffffffffffffffffffffffffffffffffffff1681565b60606000600360008481526020019081526020016000209050600c67ffffffffffffffff81111561172157611720612c8b565b5b60405190808252806020026020018201604052801561174f5781602001602082028036833780820191505090505b5091506000805b60085481101561189057600015158360060160006005600085815260200190815260200160002060009054906101000a900473ffffffffffffffffffffffffffffffffffffffff1673ffffffffffffffffffffffffffffffffffffffff1673ffffffffffffffffffffffffffffffffffffffff16815260200190815260200160002060009054906101000a900460ff1615150361187d576005600082815260200190815260200160002060009054906101000a900473ffffffffffffffffffffffffffffffffffffffff1684838151811061183457611833612cba565b5b602002602001019073ffffffffffffffffffffffffffffffffffffffff16908173ffffffffffffffffffffffffffffffffffffffff1681525050818061187990612a1b565b9250505b808061188890612a1b565b915050611756565b505050919050565b60011515600260003373ffffffffffffffffffffffffffffffffffffffff1673ffffffffffffffffffffffffffffffffffffffff16815260200190815260200160002060009054906101000a900460ff1615151461192b576040517f08c379a000000000000000000000000000000000000000000000000000000000815260040161192290612d5b565b60405180910390fd5b6006600081548092919061193e90612a1b565b91905055506040518060e001604052803373ffffffffffffffffffffffffffffffffffffffff168152602001600073ffffffffffffffffffffffffffffffffffffffff1681526020018281526020018481526020018381526020013481526020016000600a8111156119b3576119b2612267565b5b81525060046000600654815260200190815260200160002060008201518160000160006101000a81548173ffffffffffffffffffffffffffffffffffffffff021916908373ffffffffffffffffffffffffffffffffffffffff16021790555060208201518160010160006101000a81548173ffffffffffffffffffffffffffffffffffffffff021916908373ffffffffffffffffffffffffffffffffffffffff16021790555060408201518160020155606082015181600301556080820151816004015560a0820151816005015560c08201518160060160006101000a81548160ff0219169083600a811115611aac57611aab612267565b5b02179055509050507f76b20af24153d07c8afbb5a938132460fcbbc7790e42c9cb1946ddd77cb3dc12600654336000848688346000604051611af5989796959493929190612d7b565b60405180910390a1505050565b80600280600a811115611b1857611b17612267565b5b6004600084815260200190815260200160002060060160009054906101000a900460ff16600a811115611b4e57611b4d612267565b5b14611b8e576040517f08c379a0000000000000000000000000000000000000000000000000000000008152600401611b85906127ed565b60405180910390fd5b823373ffffffffffffffffffffffffffffffffffffffff166004600083815260200190815260200160002060000160009054906101000a900473ffffffffffffffffffffffffffffffffffffffff1673ffffffffffffffffffffffffffffffffffffffff1614611c33576040517f08c379a0000000000000000000000000000000000000000000000000000000008152600401611c2a9061287f565b60405180910390fd5b600060046000868152602001908152602001600020905060038160060160006101000a81548160ff0219169083600a811115611c7257611c71612267565b5b02179055507f3dd96a11406d183e06e4d2e202d402fb58f4bd545234c42c2cc1fcf83ac4cd6f85604051611ca6919061224c565b60405180910390a15050505050565b6000804233604051602001611ccb929190612e62565b6040516020818303038152906040528051906020012060001c90508281611cf29190612ebd565b600081905550600054915050919050565b816000806003811115611d1957611d18612267565b5b6003600084815260200190815260200160002060070160009054906101000a900460ff166003811115611d4f57611d4e612267565b5b14611d8f576040517f08c379a0000000000000000000000000000000000000000000000000000000008152600401611d8690612f60565b60405180910390fd5b600060036000868152602001908152602001600020905060006003811115611dba57611db9612267565b5b8160070160009054906101000a900460ff166003811115611dde57611ddd612267565b5b14611e1e576040517f08c379a0000000000000000000000000000000000000000000000000000000008152600401611e1590612fcc565b60405180910390fd5b600015158160060160003373ffffffffffffffffffffffffffffffffffffffff1673ffffffffffffffffffffffffffffffffffffffff16815260200190815260200160002060009054906101000a900460ff16151514611eb3576040517f08c379a0000000000000000000000000000000000000000000000000000000008152600401611eaa9061305e565b60405180910390fd5b600115158160060160003373ffffffffffffffffffffffffffffffffffffffff1673ffffffffffffffffffffffffffffffffffffffff16815260200190815260200160002060009054906101000a90505050806003016000815480929190611f1a90612a1b565b91905055508315611f4457806004016000815480929190611f3a90612a1b565b9190505550611f5f565b806005016000815480929190611f5990612a1b565b91905055505b7f778130d4f9cc3c9c82f6d748f75bbe60e87e8af5d01ff7a7022aef11cd6e71ae85604051611f8e919061224c565b60405180910390a1600c8160030154036121295760038160070160006101000a81548160ff02191690836003811115611fca57611fc9612267565b5b02179055507fe7fa67f28f4ce1c8de77ca1fb7001091dd68726c125cf31cce5afe21ebfeed1d6000600360405161200292919061307e565b60405180910390a18060050154816004015411156120a35760006004600083600101548152602001908152602001600020905060068160060160006101000a81548160ff0219169083600a81111561205d5761205c612267565b5b02179055507f3dd96a11406d183e06e4d2e202d402fb58f4bd545234c42c2cc1fcf83ac4cd6f8260010154604051612095919061224c565b60405180910390a150612128565b60006004600083600101548152602001908152602001600020905060058160060160006101000a81548160ff0219169083600a8111156120e6576120e5612267565b5b02179055507f3dd96a11406d183e06e4d2e202d402fb58f4bd545234c42c2cc1fcf83ac4cd6f826001015460405161211e919061224c565b60405180910390a1505b5b5050505050565b60085481565b600060011515600260003373ffffffffffffffffffffffffffffffffffffffff1673ffffffffffffffffffffffffffffffffffffffff16815260200190815260200160002060009054906101000a900460ff16151503612199576001905061219e565b600090505b90565b600a81815481106121b157600080fd5b9060005260206000209060209182820401919006915054906101000a900460ff1681565b600080fd5b6000819050919050565b6121ed816121da565b81146121f857600080fd5b50565b60008135905061220a816121e4565b92915050565b600060208284031215612226576122256121d5565b5b6000612234848285016121fb565b91505092915050565b612246816121da565b82525050565b6000602082019050612261600083018461223d565b92915050565b7f4e487b7100000000000000000000000000000000000000000000000000000000600052602160045260246000fd5b600b81106122a7576122a6612267565b5b50565b60008190506122b882612296565b919050565b60006122c8826122aa565b9050919050565b6122d8816122bd565b82525050565b60006020820190506122f360008301846122cf565b92915050565b60008115159050919050565b61230e816122f9565b82525050565b60006020820190506123296000830184612305565b92915050565b600073ffffffffffffffffffffffffffffffffffffffff82169050919050565b600061235a8261232f565b9050919050565b61236a8161234f565b811461237557600080fd5b50565b60008135905061238781612361565b92915050565b6000602082840312156123a3576123a26121d5565b5b60006123b184828501612378565b91505092915050565b6123c38161234f565b82525050565b6000819050919050565b6123dc816123c9565b82525050565b600060e0820190506123f7600083018a6123ba565b61240460208301896123ba565b61241160408301886123d3565b61241e606083018761223d565b61242b608083018661223d565b61243860a083018561223d565b61244560c08301846122cf565b98975050505050505050565b600060c082019050612466600083018961223d565b61247360208301886123ba565b61248060408301876123ba565b61248d60608301866123d3565b61249a608083018561223d565b6124a760a083018461223d565b979650505050505050565b600481106124c3576124c2612267565b5b50565b60008190506124d4826124b2565b919050565b60006124e4826124c6565b9050919050565b6124f4816124d9565b82525050565b600060e08201905061250f600083018a61223d565b61251c602083018961223d565b61252960408301886123ba565b612536606083018761223d565b612543608083018661223d565b61255060a083018561223d565b61255d60c08301846124eb565b98975050505050505050565b600060208201905061257e60008301846123ba565b92915050565b600081519050919050565b600082825260208201905092915050565b6000819050602082019050919050565b6125b98161234f565b82525050565b60006125cb83836125b0565b60208301905092915050565b6000602082019050919050565b60006125ef82612584565b6125f9818561258f565b9350612604836125a0565b8060005b8381101561263557815161261c88826125bf565b9750612627836125d7565b925050600181019050612608565b5085935050505092915050565b6000602082019050818103600083015261265c81846125e4565b905092915050565b61266d816123c9565b811461267857600080fd5b50565b60008135905061268a81612664565b92915050565b6000806000606084860312156126a9576126a86121d5565b5b60006126b7868287016121fb565b93505060206126c8868287016121fb565b92505060406126d98682870161267b565b9150509250925092565b6126ec816122f9565b81146126f757600080fd5b50565b600081359050612709816126e3565b92915050565b60008060408385031215612726576127256121d5565b5b6000612734858286016121fb565b9250506020612745858286016126fa565b9150509250929050565b600060208201905061276460008301846124eb565b92915050565b600082825260208201905092915050565b7f436f6e7472616374206973206e6f7420696e2074686520636f7272656374207360008201527f746174652e000000000000000000000000000000000000000000000000000000602082015250565b60006127d760258361276a565b91506127e28261277b565b604082019050919050565b60006020820190508181036000830152612806816127ca565b9050919050565b7f4f6e6c792074686520636c69656e742063616e2063616c6c207468697320667560008201527f6e6374696f6e2e00000000000000000000000000000000000000000000000000602082015250565b600061286960278361276a565b91506128748261280d565b604082019050919050565b600060208201905081810360008301526128988161285c565b9050919050565b7f54686520636f6e74726163742068617320616c7265616479206265656e20736960008201527f676e65642e000000000000000000000000000000000000000000000000000000602082015250565b60006128fb60258361276a565b91506129068261289f565b604082019050919050565b6000602082019050818103600083015261292a816128ee565b9050919050565b600060408201905061294660008301856122cf565b61295360208301846122cf565b9392505050565b7f4f6e6c792074686520636c69656e74206f722074686520776f726b657220636160008201527f6e2063616c6c20746869732066756e6374696f6e2e0000000000000000000000602082015250565b60006129b660358361276a565b91506129c18261295a565b604082019050919050565b600060208201905081810360008301526129e5816129a9565b9050919050565b7f4e487b7100000000000000000000000000000000000000000000000000000000600052601160045260246000fd5b6000612a26826121da565b91507fffffffffffffffffffffffffffffffffffffffffffffffffffffffffffffffff8203612a5857612a576129ec565b5b600182019050919050565b6000612a6e826121da565b915060008203612a8157612a806129ec565b5b600182039050919050565b7f496e76616c696420616464726573732e00000000000000000000000000000000600082015250565b6000612ac260108361276a565b9150612acd82612a8c565b602082019050919050565b60006020820190508181036000830152612af181612ab5565b9050919050565b7f576f726b657220616c7265616479206578697374732e00000000000000000000600082015250565b6000612b2e60168361276a565b9150612b3982612af8565b602082019050919050565b60006020820190508181036000830152612b5d81612b21565b9050919050565b7f436c69656e7420616c7265616479206578697374732e00000000000000000000600082015250565b6000612b9a60168361276a565b9150612ba582612b64565b602082019050919050565b60006020820190508181036000830152612bc981612b8d565b9050919050565b7f4f6e6c792074686520776f726b65722063616e2063616c6c207468697320667560008201527f6e6374696f6e2e00000000000000000000000000000000000000000000000000602082015250565b6000612c2c60278361276a565b9150612c3782612bd0565b604082019050919050565b60006020820190508181036000830152612c5b81612c1f565b9050919050565b6000604082019050612c77600083018561223d565b612c8460208301846123ba565b9392505050565b7f4e487b7100000000000000000000000000000000000000000000000000000000600052604160045260246000fd5b7f4e487b7100000000000000000000000000000000000000000000000000000000600052603260045260246000fd5b7f4f6e6c7920636c69656e742063616e20637265617465206120636f6e7472616360008201527f742e000000000000000000000000000000000000000000000000000000000000602082015250565b6000612d4560228361276a565b9150612d5082612ce9565b604082019050919050565b60006020820190508181036000830152612d7481612d38565b9050919050565b600061010082019050612d91600083018b61223d565b612d9e602083018a6123ba565b612dab60408301896123ba565b612db860608301886123d3565b612dc5608083018761223d565b612dd260a083018661223d565b612ddf60c083018561223d565b612dec60e08301846122cf565b9998505050505050505050565b6000819050919050565b612e14612e0f826121da565b612df9565b82525050565b60008160601b9050919050565b6000612e3282612e1a565b9050919050565b6000612e4482612e27565b9050919050565b612e5c612e578261234f565b612e39565b82525050565b6000612e6e8285612e03565b602082019150612e7e8284612e4b565b6014820191508190509392505050565b7f4e487b7100000000000000000000000000000000000000000000000000000000600052601260045260246000fd5b6000612ec8826121da565b9150612ed3836121da565b925082612ee357612ee2612e8e565b5b828206905092915050565b7f44697370757465206973206e6f7420696e2074686520636f727265637420737460008201527f6174652e00000000000000000000000000000000000000000000000000000000602082015250565b6000612f4a60248361276a565b9150612f5582612eee565b604082019050919050565b60006020820190508181036000830152612f7981612f3d565b9050919050565b7f546865206469737075746520697320616c726561647920636c6f7365642e0000600082015250565b6000612fb6601e8361276a565b9150612fc182612f80565b602082019050919050565b60006020820190508181036000830152612fe581612fa9565b9050919050565b7f546865206a757279206d656d6265722068617320616c726561647920766f746560008201527f642e000000000000000000000000000000000000000000000000000000000000602082015250565b600061304860228361276a565b915061305382612fec565b604082019050919050565b600060208201905081810360008301526130778161303b565b9050919050565b600060408201905061309360008301856124eb565b6130a060208301846124eb565b939250505056fea2646970667358221220071261c734b25fcadd632e71574727991de92467b352165e5c808e91e446dd8b64736f6c63430008110033",
  "devdoc": {
    "kind": "dev",
    "methods": {},
    "version": 1
  },
  "userdoc": {
    "kind": "user",
    "methods": {},
    "version": 1
  },
  "storageLayout": {
    "storage": [
      {
        "astId": 1008,
        "contract": "contracts/FreelanceContract.sol:FreelanceContract",
        "label": "randomResult",
        "offset": 0,
        "slot": "0",
        "type": "t_uint256"
      },
      {
        "astId": 44,
        "contract": "contracts/FreelanceContract.sol:FreelanceContract",
        "label": "workers",
        "offset": 0,
        "slot": "1",
        "type": "t_mapping(t_address,t_bool)"
      },
      {
        "astId": 48,
        "contract": "contracts/FreelanceContract.sol:FreelanceContract",
        "label": "clients",
        "offset": 0,
        "slot": "2",
        "type": "t_mapping(t_address,t_bool)"
      },
      {
        "astId": 53,
        "contract": "contracts/FreelanceContract.sol:FreelanceContract",
        "label": "disputes",
        "offset": 0,
        "slot": "3",
        "type": "t_mapping(t_uint256,t_struct(Dispute)40_storage)"
      },
      {
        "astId": 58,
        "contract": "contracts/FreelanceContract.sol:FreelanceContract",
        "label": "contracts",
        "offset": 0,
        "slot": "4",
        "type": "t_mapping(t_uint256,t_struct(ContractPact)20_storage)"
      },
      {
        "astId": 62,
        "contract": "contracts/FreelanceContract.sol:FreelanceContract",
        "label": "juryPool",
        "offset": 0,
        "slot": "5",
        "type": "t_mapping(t_uint256,t_address)"
      },
      {
        "astId": 65,
        "contract": "contracts/FreelanceContract.sol:FreelanceContract",
        "label": "contractCounter",
        "offset": 0,
        "slot": "6",
        "type": "t_uint256"
      },
      {
        "astId": 68,
        "contract": "contracts/FreelanceContract.sol:FreelanceContract",
        "label": "disputeCounter",
        "offset": 0,
        "slot": "7",
        "type": "t_uint256"
      },
      {
        "astId": 71,
        "contract": "contracts/FreelanceContract.sol:FreelanceContract",
        "label": "juryCounter",
        "offset": 0,
        "slot": "8",
        "type": "t_uint256"
      },
      {
        "astId": 92,
        "contract": "contracts/FreelanceContract.sol:FreelanceContract",
        "label": "contractStates",
        "offset": 0,
        "slot": "9",
        "type": "t_array(t_enum(ContractState)83)dyn_storage"
      },
      {
        "astId": 96,
        "contract": "contracts/FreelanceContract.sol:FreelanceContract",
        "label": "disputeStates",
        "offset": 0,
        "slot": "10",
        "type": "t_array(t_enum(DisputeState)88)dyn_storage"
      }
    ],
    "types": {
      "t_address": {
        "encoding": "inplace",
        "label": "address",
        "numberOfBytes": "20"
      },
      "t_array(t_enum(ContractState)83)dyn_storage": {
        "base": "t_enum(ContractState)83",
        "encoding": "dynamic_array",
        "label": "enum FreelanceContract.ContractState[]",
        "numberOfBytes": "32"
      },
      "t_array(t_enum(DisputeState)88)dyn_storage": {
        "base": "t_enum(DisputeState)88",
        "encoding": "dynamic_array",
        "label": "enum FreelanceContract.DisputeState[]",
        "numberOfBytes": "32"
      },
      "t_bool": {
        "encoding": "inplace",
        "label": "bool",
        "numberOfBytes": "1"
      },
      "t_bytes32": {
        "encoding": "inplace",
        "label": "bytes32",
        "numberOfBytes": "32"
      },
      "t_enum(ContractState)83": {
        "encoding": "inplace",
        "label": "enum FreelanceContract.ContractState",
        "numberOfBytes": "1"
      },
      "t_enum(DisputeState)88": {
        "encoding": "inplace",
        "label": "enum FreelanceContract.DisputeState",
        "numberOfBytes": "1"
      },
      "t_mapping(t_address,t_bool)": {
        "encoding": "mapping",
        "key": "t_address",
        "label": "mapping(address => bool)",
        "numberOfBytes": "32",
        "value": "t_bool"
      },
      "t_mapping(t_uint256,t_address)": {
        "encoding": "mapping",
        "key": "t_uint256",
        "label": "mapping(uint256 => address)",
        "numberOfBytes": "32",
        "value": "t_address"
      },
      "t_mapping(t_uint256,t_struct(ContractPact)20_storage)": {
        "encoding": "mapping",
        "key": "t_uint256",
        "label": "mapping(uint256 => struct FreelanceContract.ContractPact)",
        "numberOfBytes": "32",
        "value": "t_struct(ContractPact)20_storage"
      },
      "t_mapping(t_uint256,t_struct(Dispute)40_storage)": {
        "encoding": "mapping",
        "key": "t_uint256",
        "label": "mapping(uint256 => struct FreelanceContract.Dispute)",
        "numberOfBytes": "32",
        "value": "t_struct(Dispute)40_storage"
      },
      "t_struct(ContractPact)20_storage": {
        "encoding": "inplace",
        "label": "struct FreelanceContract.ContractPact",
        "members": [
          {
            "astId": 6,
            "contract": "contracts/FreelanceContract.sol:FreelanceContract",
            "label": "client",
            "offset": 0,
            "slot": "0",
            "type": "t_address"
          },
          {
            "astId": 8,
            "contract": "contracts/FreelanceContract.sol:FreelanceContract",
            "label": "worker",
            "offset": 0,
            "slot": "1",
            "type": "t_address"
          },
          {
            "astId": 10,
            "contract": "contracts/FreelanceContract.sol:FreelanceContract",
            "label": "hashJob",
            "offset": 0,
            "slot": "2",
            "type": "t_bytes32"
          },
          {
            "astId": 12,
            "contract": "contracts/FreelanceContract.sol:FreelanceContract",
            "label": "deadline",
            "offset": 0,
            "slot": "3",
            "type": "t_uint256"
          },
          {
            "astId": 14,
            "contract": "contracts/FreelanceContract.sol:FreelanceContract",
            "label": "createAt",
            "offset": 0,
            "slot": "4",
            "type": "t_uint256"
          },
          {
            "astId": 16,
            "contract": "contracts/FreelanceContract.sol:FreelanceContract",
            "label": "price",
            "offset": 0,
            "slot": "5",
            "type": "t_uint256"
          },
          {
            "astId": 19,
            "contract": "contracts/FreelanceContract.sol:FreelanceContract",
            "label": "state",
            "offset": 0,
            "slot": "6",
            "type": "t_enum(ContractState)83"
          }
        ],
        "numberOfBytes": "224"
      },
      "t_struct(Dispute)40_storage": {
        "encoding": "inplace",
        "label": "struct FreelanceContract.Dispute",
        "members": [
          {
            "astId": 22,
            "contract": "contracts/FreelanceContract.sol:FreelanceContract",
            "label": "disputeId",
            "offset": 0,
            "slot": "0",
            "type": "t_uint256"
          },
          {
            "astId": 24,
            "contract": "contracts/FreelanceContract.sol:FreelanceContract",
            "label": "contractId",
            "offset": 0,
            "slot": "1",
            "type": "t_uint256"
          },
          {
            "astId": 26,
            "contract": "contracts/FreelanceContract.sol:FreelanceContract",
            "label": "disputeInitiator",
            "offset": 0,
            "slot": "2",
            "type": "t_address"
          },
          {
            "astId": 28,
            "contract": "contracts/FreelanceContract.sol:FreelanceContract",
            "label": "totalVoteCount",
            "offset": 0,
            "slot": "3",
            "type": "t_uint256"
          },
          {
            "astId": 30,
            "contract": "contracts/FreelanceContract.sol:FreelanceContract",
            "label": "clientVoteCount",
            "offset": 0,
            "slot": "4",
            "type": "t_uint256"
          },
          {
            "astId": 32,
            "contract": "contracts/FreelanceContract.sol:FreelanceContract",
            "label": "workerVoteCount",
            "offset": 0,
            "slot": "5",
            "type": "t_uint256"
          },
          {
            "astId": 36,
            "contract": "contracts/FreelanceContract.sol:FreelanceContract",
            "label": "disputeJury",
            "offset": 0,
            "slot": "6",
            "type": "t_mapping(t_address,t_bool)"
          },
          {
            "astId": 39,
            "contract": "contracts/FreelanceContract.sol:FreelanceContract",
            "label": "state",
            "offset": 0,
            "slot": "7",
            "type": "t_enum(DisputeState)88"
          }
        ],
        "numberOfBytes": "256"
      },
      "t_uint256": {
        "encoding": "inplace",
        "label": "uint256",
        "numberOfBytes": "32"
      }
    }
  }
}