{
  "address": "0xE5D101043BE91b0b221A59a67435b3D3F66a684e",
  "abi": [
    {
      "inputs": [
        {
          "internalType": "uint8",
          "name": "_protocolFee",
          "type": "uint8"
        },
        {
          "internalType": "uint8",
          "name": "_juryFee",
          "type": "uint8"
        },
        {
          "internalType": "uint24",
          "name": "_juryLength",
          "type": "uint24"
        }
      ],
      "stateMutability": "nonpayable",
      "type": "constructor"
    },
    {
      "anonymous": false,
      "inputs": [
        {
          "indexed": false,
          "internalType": "enum freelanceContract.ContractState",
          "name": "previousStatus",
          "type": "uint8"
        },
        {
          "indexed": false,
          "internalType": "enum freelanceContract.ContractState",
          "name": "newStatus",
          "type": "uint8"
        }
      ],
      "name": "ContractStateChange",
      "type": "event"
    },
    {
      "anonymous": false,
      "inputs": [
        {
          "indexed": true,
          "internalType": "address",
          "name": "previousOwner",
          "type": "address"
        },
        {
          "indexed": true,
          "internalType": "address",
          "name": "newOwner",
          "type": "address"
        }
      ],
      "name": "OwnershipTransferred",
      "type": "event"
    },
    {
      "anonymous": false,
      "inputs": [
        {
          "indexed": false,
          "internalType": "uint256",
          "name": "disputeId",
          "type": "uint256"
        },
        {
          "indexed": false,
          "internalType": "address",
          "name": "juryAddress",
          "type": "address"
        }
      ],
      "name": "Voted",
      "type": "event"
    },
    {
      "inputs": [],
      "name": "addClient",
      "outputs": [],
      "stateMutability": "nonpayable",
      "type": "function"
    },
    {
      "inputs": [],
      "name": "addJury",
      "outputs": [],
      "stateMutability": "nonpayable",
      "type": "function"
    },
    {
      "inputs": [],
      "name": "addWorker",
      "outputs": [],
      "stateMutability": "nonpayable",
      "type": "function"
    },
    {
      "inputs": [
        {
          "internalType": "uint256",
          "name": "_contractId",
          "type": "uint256"
        }
      ],
      "name": "cancelContractByClient",
      "outputs": [],
      "stateMutability": "nonpayable",
      "type": "function"
    },
    {
      "inputs": [
        {
          "internalType": "uint256",
          "name": "_contractId",
          "type": "uint256"
        }
      ],
      "name": "cancelContractByWorker",
      "outputs": [],
      "stateMutability": "nonpayable",
      "type": "function"
    },
    {
      "inputs": [
        {
          "internalType": "address",
          "name": "",
          "type": "address"
        }
      ],
      "name": "clients",
      "outputs": [
        {
          "internalType": "bool",
          "name": "",
          "type": "bool"
        }
      ],
      "stateMutability": "view",
      "type": "function"
    },
    {
      "inputs": [],
      "name": "contractCounter",
      "outputs": [
        {
          "internalType": "uint256",
          "name": "",
          "type": "uint256"
        }
      ],
      "stateMutability": "view",
      "type": "function"
    },
    {
      "inputs": [
        {
          "internalType": "uint256",
          "name": "",
          "type": "uint256"
        }
      ],
      "name": "contractStates",
      "outputs": [
        {
          "internalType": "enum freelanceContract.ContractState",
          "name": "",
          "type": "uint8"
        }
      ],
      "stateMutability": "view",
      "type": "function"
    },
    {
      "inputs": [
        {
          "internalType": "uint256",
          "name": "",
          "type": "uint256"
        }
      ],
      "name": "contracts",
      "outputs": [
        {
          "internalType": "address payable",
          "name": "client",
          "type": "address"
        },
        {
          "internalType": "address payable",
          "name": "worker",
          "type": "address"
        },
        {
          "internalType": "bytes32",
          "name": "hashJob",
          "type": "bytes32"
        },
        {
          "internalType": "uint256",
          "name": "deadline",
          "type": "uint256"
        },
        {
          "internalType": "uint256",
          "name": "createAt",
          "type": "uint256"
        },
        {
          "internalType": "uint256",
          "name": "price",
          "type": "uint256"
        },
        {
          "internalType": "uint256",
          "name": "disputeId",
          "type": "uint256"
        },
        {
          "internalType": "enum freelanceContract.ContractState",
          "name": "state",
          "type": "uint8"
        }
      ],
      "stateMutability": "view",
      "type": "function"
    },
    {
      "inputs": [
        {
          "internalType": "uint256",
          "name": "_deadline",
          "type": "uint256"
        },
        {
          "internalType": "uint256",
          "name": "_today",
          "type": "uint256"
        },
        {
          "internalType": "bytes32",
          "name": "_hash",
          "type": "bytes32"
        }
      ],
      "name": "createContract",
      "outputs": [],
      "stateMutability": "payable",
      "type": "function"
    },
    {
      "inputs": [],
      "name": "disputeCounter",
      "outputs": [
        {
          "internalType": "uint256",
          "name": "",
          "type": "uint256"
        }
      ],
      "stateMutability": "view",
      "type": "function"
    },
    {
      "inputs": [
        {
          "internalType": "uint256",
          "name": "",
          "type": "uint256"
        }
      ],
      "name": "disputes",
      "outputs": [
        {
          "internalType": "uint256",
          "name": "disputeId",
          "type": "uint256"
        },
        {
          "internalType": "uint256",
          "name": "contractId",
          "type": "uint256"
        },
        {
          "internalType": "uint24",
          "name": "totalVoteCount",
          "type": "uint24"
        },
        {
          "internalType": "uint24",
          "name": "clientVoteCount",
          "type": "uint24"
        },
        {
          "internalType": "uint24",
          "name": "workerVoteCount",
          "type": "uint24"
        },
        {
          "internalType": "address",
          "name": "disputeInitiator",
          "type": "address"
        }
      ],
      "stateMutability": "view",
      "type": "function"
    },
    {
      "inputs": [
        {
          "internalType": "uint256",
          "name": "_contractId",
          "type": "uint256"
        }
      ],
      "name": "getContractDetails",
      "outputs": [
        {
          "internalType": "uint256",
          "name": "contractId",
          "type": "uint256"
        },
        {
          "internalType": "address",
          "name": "client",
          "type": "address"
        },
        {
          "internalType": "address",
          "name": "worker",
          "type": "address"
        },
        {
          "internalType": "bytes32",
          "name": "hashJob",
          "type": "bytes32"
        },
        {
          "internalType": "uint256",
          "name": "deadline",
          "type": "uint256"
        },
        {
          "internalType": "uint256",
          "name": "price",
          "type": "uint256"
        }
      ],
      "stateMutability": "view",
      "type": "function"
    },
    {
      "inputs": [
        {
          "internalType": "uint256",
          "name": "_disputeId",
          "type": "uint256"
        }
      ],
      "name": "getJuryMembers",
      "outputs": [
        {
          "internalType": "address[]",
          "name": "",
          "type": "address[]"
        }
      ],
      "stateMutability": "view",
      "type": "function"
    },
    {
      "inputs": [
        {
          "internalType": "uint256",
          "name": "_disputeId",
          "type": "uint256"
        },
        {
          "internalType": "address",
          "name": "_juryAddress",
          "type": "address"
        }
      ],
      "name": "hasVoted",
      "outputs": [
        {
          "internalType": "bool",
          "name": "",
          "type": "bool"
        }
      ],
      "stateMutability": "view",
      "type": "function"
    },
    {
      "inputs": [],
      "name": "isClient",
      "outputs": [
        {
          "internalType": "bool",
          "name": "",
          "type": "bool"
        }
      ],
      "stateMutability": "view",
      "type": "function"
    },
    {
      "inputs": [
        {
          "internalType": "address",
          "name": "_address",
          "type": "address"
        }
      ],
      "name": "isJury",
      "outputs": [
        {
          "internalType": "bool",
          "name": "",
          "type": "bool"
        }
      ],
      "stateMutability": "view",
      "type": "function"
    },
    {
      "inputs": [
        {
          "internalType": "uint256",
          "name": "_disputeId",
          "type": "uint256"
        },
        {
          "internalType": "address",
          "name": "_juryAddress",
          "type": "address"
        }
      ],
      "name": "isJuryInDispute",
      "outputs": [
        {
          "internalType": "bool",
          "name": "",
          "type": "bool"
        }
      ],
      "stateMutability": "view",
      "type": "function"
    },
    {
      "inputs": [],
      "name": "isWorker",
      "outputs": [
        {
          "internalType": "bool",
          "name": "",
          "type": "bool"
        }
      ],
      "stateMutability": "view",
      "type": "function"
    },
    {
      "inputs": [],
      "name": "juryCounter",
      "outputs": [
        {
          "internalType": "uint256",
          "name": "",
          "type": "uint256"
        }
      ],
      "stateMutability": "view",
      "type": "function"
    },
    {
      "inputs": [],
      "name": "juryFee",
      "outputs": [
        {
          "internalType": "uint8",
          "name": "",
          "type": "uint8"
        }
      ],
      "stateMutability": "view",
      "type": "function"
    },
    {
      "inputs": [],
      "name": "juryLength",
      "outputs": [
        {
          "internalType": "uint24",
          "name": "",
          "type": "uint24"
        }
      ],
      "stateMutability": "view",
      "type": "function"
    },
    {
      "inputs": [
        {
          "internalType": "uint256",
          "name": "",
          "type": "uint256"
        }
      ],
      "name": "juryPool",
      "outputs": [
        {
          "internalType": "address",
          "name": "",
          "type": "address"
        }
      ],
      "stateMutability": "view",
      "type": "function"
    },
    {
      "inputs": [
        {
          "internalType": "uint256",
          "name": "_contractId",
          "type": "uint256"
        }
      ],
      "name": "openDispute",
      "outputs": [],
      "stateMutability": "nonpayable",
      "type": "function"
    },
    {
      "inputs": [],
      "name": "owner",
      "outputs": [
        {
          "internalType": "address",
          "name": "",
          "type": "address"
        }
      ],
      "stateMutability": "view",
      "type": "function"
    },
    {
      "inputs": [],
      "name": "protocolFee",
      "outputs": [
        {
          "internalType": "uint8",
          "name": "",
          "type": "uint8"
        }
      ],
      "stateMutability": "view",
      "type": "function"
    },
    {
      "inputs": [
        {
          "internalType": "uint256",
          "name": "_contractId",
          "type": "uint256"
        }
      ],
      "name": "pullPayment",
      "outputs": [],
      "stateMutability": "nonpayable",
      "type": "function"
    },
    {
      "inputs": [
        {
          "internalType": "uint256",
          "name": "_seed",
          "type": "uint256"
        }
      ],
      "name": "random",
      "outputs": [
        {
          "internalType": "uint256",
          "name": "",
          "type": "uint256"
        }
      ],
      "stateMutability": "view",
      "type": "function"
    },
    {
      "inputs": [],
      "name": "removeClient",
      "outputs": [],
      "stateMutability": "nonpayable",
      "type": "function"
    },
    {
      "inputs": [],
      "name": "removeJury",
      "outputs": [],
      "stateMutability": "nonpayable",
      "type": "function"
    },
    {
      "inputs": [],
      "name": "removeWorker",
      "outputs": [],
      "stateMutability": "nonpayable",
      "type": "function"
    },
    {
      "inputs": [],
      "name": "renounceOwnership",
      "outputs": [],
      "stateMutability": "nonpayable",
      "type": "function"
    },
    {
      "inputs": [
        {
          "internalType": "uint256",
          "name": "_contractId",
          "type": "uint256"
        }
      ],
      "name": "requestClientValidation",
      "outputs": [],
      "stateMutability": "nonpayable",
      "type": "function"
    },
    {
      "inputs": [
        {
          "internalType": "uint256",
          "name": "_contractId",
          "type": "uint256"
        }
      ],
      "name": "revealState",
      "outputs": [],
      "stateMutability": "nonpayable",
      "type": "function"
    },
    {
      "inputs": [
        {
          "internalType": "uint256",
          "name": "_contractId",
          "type": "uint256"
        }
      ],
      "name": "selectJuryMember",
      "outputs": [],
      "stateMutability": "nonpayable",
      "type": "function"
    },
    {
      "inputs": [
        {
          "internalType": "uint256",
          "name": "_contractId",
          "type": "uint256"
        }
      ],
      "name": "setIsFinishedAndAllowPayment",
      "outputs": [],
      "stateMutability": "nonpayable",
      "type": "function"
    },
    {
      "inputs": [
        {
          "internalType": "uint8",
          "name": "_juryFee",
          "type": "uint8"
        }
      ],
      "name": "setJuryFee",
      "outputs": [],
      "stateMutability": "nonpayable",
      "type": "function"
    },
    {
      "inputs": [
        {
          "internalType": "uint8",
          "name": "_juryLength",
          "type": "uint8"
        }
      ],
      "name": "setJuryLength",
      "outputs": [],
      "stateMutability": "nonpayable",
      "type": "function"
    },
    {
      "inputs": [
        {
          "internalType": "uint8",
          "name": "_protocolFee",
          "type": "uint8"
        }
      ],
      "name": "setProtocolFee",
      "outputs": [],
      "stateMutability": "nonpayable",
      "type": "function"
    },
    {
      "inputs": [
        {
          "internalType": "uint256",
          "name": "_contractId",
          "type": "uint256"
        }
      ],
      "name": "signContract",
      "outputs": [],
      "stateMutability": "nonpayable",
      "type": "function"
    },
    {
      "inputs": [
        {
          "internalType": "address",
          "name": "newOwner",
          "type": "address"
        }
      ],
      "name": "transferOwnership",
      "outputs": [],
      "stateMutability": "nonpayable",
      "type": "function"
    },
    {
      "inputs": [
        {
          "internalType": "uint256",
          "name": "_contractId",
          "type": "uint256"
        },
        {
          "internalType": "bool",
          "name": "_vote",
          "type": "bool"
        }
      ],
      "name": "vote",
      "outputs": [],
      "stateMutability": "nonpayable",
      "type": "function"
    },
    {
      "inputs": [
        {
          "internalType": "address",
          "name": "",
          "type": "address"
        }
      ],
      "name": "workers",
      "outputs": [
        {
          "internalType": "bool",
          "name": "",
          "type": "bool"
        }
      ],
      "stateMutability": "view",
      "type": "function"
    }
  ],
  "transactionHash": "0x72e03d1d3b9db83ec567e4b2bac8af05e139d6933d851eef044df83ca457dd19",
  "args": [
    5,
    5,
    3
  ],
  "numDeployments": 1,
  "solcInputHash": "6c2f41a1569e8ba80472f3c501be01cb",
  "bytecode": "0x60806040526000600755600060085560006009553480156200002057600080fd5b50604051620036a5380380620036a583398101604081905262000043916200011e565b6200004e33620000b7565b6000805462ffffff909216600160a01b0262ffffff60a01b1960ff948516600160c01b0260ff60c01b1995909616600160b81b029490941661ffff60b81b19909316929092179390931791909116179055600180546001600160a01b0319163317905562000173565b600080546001600160a01b038381166001600160a01b0319831681178455604051919092169283917f8be0079c531659141344cd1fd0a4f28419497f9722a3daafe3b4186f6b6457e09190a35050565b805160ff811681146200011957600080fd5b919050565b6000806000606084860312156200013457600080fd5b6200013f8462000107565b92506200014f6020850162000107565b9150604084015162ffffff811681146200016857600080fd5b809150509250925092565b61352280620001836000396000f3fe60806040526004361061028c5760003560e01c806374b4f03a11610164578063b406df6d116100c6578063c8ac5e5f1161008a578063e421fbca11610064578063e421fbca14610961578063ef2c02a814610977578063f2fde38b1461098c57600080fd5b8063c8ac5e5f1461090c578063c9d27afe1461092c578063d77640fe1461094c57600080fd5b8063b406df6d14610846578063b863bd3714610866578063b9b268fe146108b7578063bbbb77fb146108d7578063c2693958146108ec57600080fd5b80639537e8d111610128578063a7e7ec2011610102578063a7e7ec20146107d2578063b01f061714610805578063b0e21e8a1461082557600080fd5b80639537e8d1146107695780639858359014610789578063a3626ece146107bf57600080fd5b806374b4f03a146106cc57806374b73997146106e15780637d36f4d3146107015780638008e8bc146107175780638da5cb5b1461073757600080fd5b8063474da79a1161020d578063564a565d116101d15780636b655e45116101ab5780636b655e451461066a5780636c77ee8c14610697578063715018a6146106b757600080fd5b8063564a565d146105695780635823440f1461061a57806361eed2a91461063a57600080fd5b8063474da79a146103e85780634b4d34891461046b5780634d6d6a9c146104a25780634e91f81114610534578063533aa4741461055457600080fd5b806327d00fb01161025457806327d00fb01461033e5780632a2520a71461035e5780632b254c77146103835780634048a2571461039857806343859632146103c857600080fd5b806305f744c114610291578063067bd3b4146102b35780631c798b6a146102dc5780631d4c6e6d146102fc57806324baf3bb14610329575b600080fd5b34801561029d57600080fd5b506102b16102ac366004613112565b6109ac565b005b3480156102bf57600080fd5b506102c960075481565b6040519081526020015b60405180910390f35b3480156102e857600080fd5b506102b16102f7366004613112565b610b38565b34801561030857600080fd5b5061031c610317366004613112565b610d64565b6040516102d39190613163565b34801561033557600080fd5b506102b1610d98565b34801561034a57600080fd5b506102b1610359366004613112565b610e55565b34801561036a57600080fd5b50610373611112565b60405190151581526020016102d3565b34801561038f57600080fd5b506102b161113a565b3480156103a457600080fd5b506103736103b336600461318d565b60026020526000908152604090205460ff1681565b3480156103d457600080fd5b506103736103e33660046131af565b6111f6565b3480156103f457600080fd5b50610457610403366004613112565b6005602081905260009182526040909120805460018201546002830154600384015460048501549585015460068601546007909601546001600160a01b039586169794909516959294919392909160ff1688565b6040516102d39897969594939291906131db565b34801561047757600080fd5b5060005461048e90600160a01b900462ffffff1681565b60405162ffffff90911681526020016102d3565b3480156104ae57600080fd5b506104fb6104bd366004613112565b60008181526005602081905260409091208054600182015460028301546003840154939094015494956001600160a01b039283169591909216939291565b604080519687526001600160a01b03958616602088015293909416928501929092526060840152608083015260a082015260c0016102d3565b34801561054057600080fd5b506102b161054f366004613232565b6112af565b34801561056057600080fd5b506102b16112d7565b34801561057557600080fd5b506105d9610584366004613112565b60046020526000908152604090208054600182015460029092015490919062ffffff8082169163010000008104821691660100000000000082041690690100000000000000000090046001600160a01b031686565b60408051968752602087019590955262ffffff9384169486019490945290821660608501521660808301526001600160a01b031660a082015260c0016102d3565b34801561062657600080fd5b506102b1610635366004613112565b611393565b34801561064657600080fd5b5061037361065536600461318d565b60036020526000908152604090205460ff1681565b34801561067657600080fd5b5061068a610685366004613112565b61149a565b6040516102d39190613255565b3480156106a357600080fd5b506102b16106b2366004613232565b61157e565b3480156106c357600080fd5b506102b16115a6565b3480156106d857600080fd5b506102b16115ba565b3480156106ed57600080fd5b506103736106fc36600461318d565b611688565b34801561070d57600080fd5b506102c960085481565b34801561072357600080fd5b506102b1610732366004613112565b6116db565b34801561074357600080fd5b506000546001600160a01b03165b6040516001600160a01b0390911681526020016102d3565b34801561077557600080fd5b506102b1610784366004613112565b6117db565b34801561079557600080fd5b506107516107a4366004613112565b6006602052600090815260409020546001600160a01b031681565b6102b16107cd3660046132a2565b6118f6565b3480156107de57600080fd5b506000546107f390600160c01b900460ff1681565b60405160ff90911681526020016102d3565b34801561081157600080fd5b506102b1610820366004613112565b611ae4565b34801561083157600080fd5b506000546107f390600160b81b900460ff1681565b34801561085257600080fd5b506103736108613660046131af565b611bc4565b34801561087257600080fd5b506102c9610881366004613112565b60408051426020808301919091524482840152606080830194909452825180830390940184526080909101909152815191012090565b3480156108c357600080fd5b506102b16108d2366004613112565b611c49565b3480156108e357600080fd5b506102b16128be565b3480156108f857600080fd5b506102b1610907366004613232565b61297b565b34801561091857600080fd5b506102b1610927366004613112565b6129a4565b34801561093857600080fd5b506102b16109473660046132ce565b612aab565b34801561095857600080fd5b506102b1612d5c565b34801561096d57600080fd5b506102c960095481565b34801561098357600080fd5b50610373612e7a565b34801561099857600080fd5b506102b16109a736600461318d565b612e9c565b8060008060008381526005602052604090206007015460ff16600b8111156109d6576109d661312b565b146109fc5760405162461bcd60e51b81526004016109f390613303565b60405180910390fd5b60008381526005602052604090205483906001600160a01b03163314610a745760405162461bcd60e51b815260206004820152602760248201527f4f6e6c792074686520636c69656e742063616e2063616c6c20746869732066756044820152663731ba34b7b71760c91b60648201526084016109f3565b600084815260056020526040812090600782015460ff16600b811115610a9c57610a9c61312b565b14610af75760405162461bcd60e51b815260206004820152602560248201527f54686520636f6e74726163742068617320616c7265616479206265656e20736960448201526433b732b21760d91b60648201526084016109f3565b60078101805460ff1916600a9081179091556040516000805160206134cd83398151915291610b299160009190613348565b60405180910390a15050505050565b610b406130f4565b60008281526005602090815260408083206006810154845260048352818420825160608101845285815293840185905291830193909352903360005b60005462ffffff600160a01b90910481169082161015610d215780610ba68862ffffff8316612f15565b92506000805b60038162ffffff161015610c0d57888162ffffff1660038110610bd157610bd1613363565b60200201516001600160a01b0316856001600160a01b031603610bf75760019150610c0d565b6000915080610c058161338f565b915050610bac565b506000546003870154600160a01b90910462ffffff16118015610c2e575080155b15610cf85783888462ffffff1660038110610c4b57610c4b613363565b6001600160a01b03928316602091820292909201919091526040805160608101825262ffffff808816825260008285018181528a871694840194855260038d01805460018101825590835295909120835195018054915194519096166401000000000277ffffffffffffffffffffffffffffffffffffffff000000001994151563010000000263ffffffff1990921695909216949094179390931791909116919091179091559450610d0c565b82610d02816133b1565b9350505050610d0f565b50505b80610d198161338f565b915050610b7c565b5060078401805460ff191660059081179091556040516000805160206134cd83398151915291610d549160049190613348565b60405180910390a1505050505050565b600a8181548110610d7457600080fd5b9060005260206000209060209182820401919006915054906101000a900460ff1681565b33610dd85760405162461bcd60e51b815260206004820152601060248201526f24b73b30b634b21030b2323932b9b99760811b60448201526064016109f3565b3360009081526003602052604090205460ff161515600114610e3c5760405162461bcd60e51b815260206004820152601660248201527f436c69656e7420646f6573206e6f742065786973742e0000000000000000000060448201526064016109f3565b336000908152600360205260409020805460ff19169055565b60008181526005602052604090205481906001600160a01b0316331480610e9557506000818152600560205260409020600101546001600160a01b031633145b610eff5760405162461bcd60e51b815260206004820152603560248201527f4f6e6c792074686520636c69656e74206f722074686520776f726b6572206361604482015274371031b0b636103a3434b990333ab731ba34b7b71760591b60648201526084016109f3565b600054600954600160a01b90910462ffffff1610610f765760405162461bcd60e51b815260206004820152602e60248201527f4e6f7420656e6f756768206a75727920696e206a757279506f6f6c20746f206f60448201526d3832b71030903234b9b83aba329760911b60648201526084016109f3565b600160008381526005602052604090206007015460ff16600b811115610f9e57610f9e61312b565b1480610fcf5750600260008381526005602052604090206007015460ff16600b811115610fcd57610fcd61312b565b145b61104f5760405162461bcd60e51b8152602060048201526044602482018190527f54686520636f6e7472616374206d75737420626520696e20776f726b20737461908201527f72746564206f722077616974696e6720636c69656e742072657669657720737460648201526330ba329760e11b608482015260a4016109f3565b60008281526005602052604090206007810180546004919060ff191660018302179055506000805160206134cd83398151915260016004604051611094929190613348565b60405180910390a1600880549060006110ac836133d0565b90915550506008805460009081526004602052604090206001810194909455600290930180547fffffff0000000000000000000000000000000000000000ffffffffffffffffff1633690100000000000000000002179055915460069092019190915550565b3360009081526002602052604081205460ff1615156001036111345750600190565b50600090565b3361117a5760405162461bcd60e51b815260206004820152601060248201526f24b73b30b634b21030b2323932b9b99760811b60448201526064016109f3565b3360009081526002602052604090205460ff16156111da5760405162461bcd60e51b815260206004820152601660248201527f576f726b657220616c7265616479206578697374732e0000000000000000000060448201526064016109f3565b336000908152600260205260409020805460ff19166001179055565b600082815260046020526040812081805b60038301548110156112a457846001600160a01b031683600301828154811061123257611232613363565b60009182526020909120015464010000000090046001600160a01b0316148015611288575082600301818154811061126c5761126c613363565b6000918252602090912001546301000000900460ff1615156001145b1561129257600191505b8061129c816133d0565b915050611207565b509150505b92915050565b6112b761304a565b6000805460ff909216600160b81b0260ff60b81b19909216919091179055565b336113175760405162461bcd60e51b815260206004820152601060248201526f24b73b30b634b21030b2323932b9b99760811b60448201526064016109f3565b3360009081526003602052604090205460ff16156113775760405162461bcd60e51b815260206004820152601660248201527f436c69656e7420616c7265616479206578697374732e0000000000000000000060448201526064016109f3565b336000908152600360205260409020805460ff19166001179055565b8060018060008381526005602052604090206007015460ff16600b8111156113bd576113bd61312b565b146113da5760405162461bcd60e51b81526004016109f390613303565b60008381526005602052604090206001015483906001600160a01b031633146114555760405162461bcd60e51b815260206004820152602760248201527f4f6e6c792074686520776f726b65722063616e2063616c6c20746869732066756044820152663731ba34b7b71760c91b60648201526084016109f3565b60008481526005602052604090206007810180546009919060ff191660018302179055506000805160206134cd83398151915260016009604051610b29929190613348565b600081815260046020526040812060038101546060929067ffffffffffffffff8111156114c9576114c96133e9565b6040519080825280602002602001820160405280156114f2578160200160208202803683370190505b50905060005b60038301548110156115765782600301818154811061151957611519613363565b9060005260206000200160000160049054906101000a90046001600160a01b031682828151811061154c5761154c613363565b6001600160a01b03909216602092830291909101909101528061156e816133d0565b9150506114f8565b509392505050565b61158661304a565b6000805460ff909216600160c01b0260ff60c01b19909216919091179055565b6115ae61304a565b6115b860006130a4565b565b336115fa5760405162461bcd60e51b815260206004820152601060248201526f24b73b30b634b21030b2323932b9b99760811b60448201526064016109f3565b61160333611688565b156116505760405162461bcd60e51b815260206004820152601460248201527f4a75727920616c7265616479206578697374732e00000000000000000000000060448201526064016109f3565b60098054906000611660836133d0565b9091555050600954600090815260066020526040902080546001600160a01b03191633179055565b6000805b6009548110156116d2576000818152600660205260409020546001600160a01b038085169116036116c05750600192915050565b806116ca816133d0565b91505061168c565b50600092915050565b8060068060008381526005602052604090206007015460ff16600b8111156117055761170561312b565b146117225760405162461bcd60e51b81526004016109f390613303565b6000838152600560209081526040808320600681015484526004909252909120600281015462ffffff66010000000000008204811663010000009092041611156117a55760078201805460ff191660089081179091556040516000805160206134cd833981519152916117989160069190613348565b60405180910390a16117d4565b6007828101805460ff1916821790556040516000805160206134cd83398151915291610b299160069190613348565b5050505050565b8060008060008381526005602052604090206007015460ff16600b8111156118055761180561312b565b146118225760405162461bcd60e51b81526004016109f390613303565b600083815260056020526040812090600782015460ff16600b81111561184a5761184a61312b565b146118a55760405162461bcd60e51b815260206004820152602560248201527f54686520636f6e74726163742068617320616c7265616479206265656e20736960448201526433b732b21760d91b60648201526084016109f3565b600181810180546001600160a01b0319163317905560078201805460ff1916821790556040516000805160206134cd833981519152916118e89160009190613348565b60405180910390a150505050565b3360009081526003602052604090205460ff1615156001146119655760405162461bcd60e51b815260206004820152602260248201527f4f6e6c7920636c69656e742063616e20637265617465206120636f6e747261636044820152613a1760f11b60648201526084016109f3565b600034116119bf5760405162461bcd60e51b815260206004820152602160248201527f546865207072696365206d7573742062652067726561746572207468616e20306044820152601760f91b60648201526084016109f3565b600780549060006119cf836133d0565b9190505550604051806101000160405280336001600160a01b0316815260200160006001600160a01b03168152602001828152602001848152602001838152602001348152602001600081526020016000600b811115611a3157611a3161312b565b905260078054600090815260056020818152604092839020855181546001600160a01b039182166001600160a01b031991821617835592870151600180840180549290931691909416179055928501516002840155606085015160038401556080850151600484015560a08501519183019190915560c0840151600683015560e08401519282018054929392909160ff199091169083600b811115611ad857611ad861312b565b02179055505050505050565b8060028060008381526005602052604090206007015460ff16600b811115611b0e57611b0e61312b565b14611b2b5760405162461bcd60e51b81526004016109f390613303565b60008381526005602052604090205483906001600160a01b03163314611ba35760405162461bcd60e51b815260206004820152602760248201527f4f6e6c792074686520636c69656e742063616e2063616c6c20746869732066756044820152663731ba34b7b71760c91b60648201526084016109f3565b5050506000908152600560205260409020600701805460ff19166003179055565b6000828152600460205260408120815b6003820154811015611c3e57836001600160a01b0316826003018281548110611bff57611bff613363565b60009182526020909120015464010000000090046001600160a01b031603611c2c576001925050506112a9565b80611c36816133d0565b915050611bd4565b506000949350505050565b60008181526005602052604090205481906001600160a01b0316331480611c8957506000818152600560205260409020600101546001600160a01b031633145b611cf35760405162461bcd60e51b815260206004820152603560248201527f4f6e6c792074686520636c69656e74206f722074686520776f726b6572206361604482015274371031b0b636103a3434b990333ab731ba34b7b71760591b60648201526084016109f3565b60008281526005602081905260409091209081015460068201546009600784015460ff16600b811115611d2857611d2861312b565b1480611d4c5750600a600784015460ff16600b811115611d4a57611d4a61312b565b145b15611e0657825460078401805460ff1916600b1790556000600585018190556040516001600160a01b0390921691829085908381818185875af1925050503d8060008114611db6576040519150601f19603f3d011682016040523d82523d6000602084013e611dbb565b606091505b5050905080611dff5760405162461bcd60e51b815260206004820152601060248201526f2a3930b739b332b9103330b4b632b21760811b60448201526064016109f3565b50506117d4565b6003600784015460ff16600b811115611e2157611e2161312b565b03612078576001830154600080546001600160a01b0390921691611e5190606490600160b81b900460ff16613415565b611e5c906001613437565b611e699060ff1685613450565b60408051600280825260608201835292935060009290916020830190803683370190505090508281600081518110611ea357611ea3613363565b6001600160a01b0392831660209182029290920101526001805483519216918391908110611ed357611ed3613363565b6001600160a01b039290921660209283029190910182015260408051600280825260608201835260009391929091830190803683370190505090508281600081518110611f2257611f22613363565b6020908102919091010152600054611f4690606490600160b81b900460ff16613415565b611f539060ff1687613450565b81600181518110611f6657611f66613363565b602090810291909101015260078701805460ff1916600b1790556000600588018190555b825181101561206e576000838281518110611fa757611fa7613363565b60200260200101516001600160a01b0316838381518110611fca57611fca613363565b602002602001015160405160006040518083038185875af1925050503d8060008114612012576040519150601f19603f3d011682016040523d82523d6000602084013e612017565b606091505b505090508061205b5760405162461bcd60e51b815260206004820152601060248201526f2a3930b739b332b9103330b4b632b21760811b60448201526064016109f3565b5080612066816133d0565b915050611f8a565b50505050506117d4565b60078084015460ff16600b8111156120925761209261312b565b03612470576000818152600460205260408120600381015490916120b7826002613467565b67ffffffffffffffff8111156120cf576120cf6133e9565b6040519080825280602002602001820160405280156120f8578160200160208202803683370190505b5090506000612108836002613467565b67ffffffffffffffff811115612120576121206133e9565b604051908082528060200260200182016040528015612149578160200160208202803683370190505b5060078801805460ff1916600b179055600060058901819055600189015481549293506001600160a01b031691606490899061219190889060ff600160c01b9091041661347a565b61219b9190613450565b6121a5919061347a565b60008054919250906121c390606490600160b81b900460ff16613415565b6121d09060ff168a613450565b90506000816121df848c61348e565b6121e9919061348e565b905083866000815181106121ff576121ff613363565b60200260200101906001600160a01b031690816001600160a01b031681525050808560008151811061223357612233613363565b60209081029190910101526001805487516001600160a01b03909116918891811061226057612260613363565b60200260200101906001600160a01b031690816001600160a01b031681525050818560018151811061229457612294613363565b60200260200101818152505060005b8781101561237a578860030181815481106122c0576122c0613363565b60009182526020909120015464010000000090046001600160a01b0316876122e9836002613467565b815181106122f9576122f9613363565b6001600160a01b039092166020928302919091019091015260005460649061232d908a9060ff600160c01b9091041661347a565b612337919061347a565b612341908c613450565b8661234d836002613467565b8151811061235d5761235d613363565b602090810291909101015280612372816133d0565b9150506122a3565b5060005b865181101561246257600087828151811061239b5761239b613363565b60200260200101516001600160a01b03168783815181106123be576123be613363565b602002602001015160405160006040518083038185875af1925050503d8060008114612406576040519150601f19603f3d011682016040523d82523d6000602084013e61240b565b606091505b505090508061244f5760405162461bcd60e51b815260206004820152601060248201526f2a3930b739b332b9103330b4b632b21760811b60448201526064016109f3565b508061245a816133d0565b91505061237e565b5050505050505050506117d4565b6008600784015460ff16600b81111561248b5761248b61312b565b03612876576000818152600460205260408120600381015490916124b0826002613467565b67ffffffffffffffff8111156124c8576124c86133e9565b6040519080825280602002602001820160405280156124f1578160200160208202803683370190505b5090506000612501836002613467565b67ffffffffffffffff811115612519576125196133e9565b604051908082528060200260200182016040528015612542578160200160208202803683370190505b5060078801805460ff1916600b179055600060058901819055885481549293506001600160a01b031691606490899061258790889060ff600160c01b9091041661347a565b6125919190613450565b61259b919061347a565b60008054919250906125b990606490600160b81b900460ff16613415565b6125c69060ff168a613450565b90506000816125d5848c61348e565b6125df919061348e565b905083866000815181106125f5576125f5613363565b60200260200101906001600160a01b031690816001600160a01b031681525050808560008151811061262957612629613363565b60209081029190910101526001805487516001600160a01b03909116918891811061265657612656613363565b6001600160a01b03909216602092830291909101909101526000546126889060649060ff600160b81b90910416613415565b6126959060ff168b613450565b856001815181106126a8576126a8613363565b60200260200101818152505060005b8781101561278e578860030181815481106126d4576126d4613363565b60009182526020909120015464010000000090046001600160a01b0316876126fd836002613467565b8151811061270d5761270d613363565b6001600160a01b0390921660209283029190910190910152600054606490612741908a9060ff600160c01b9091041661347a565b61274b908d613450565b612755919061347a565b86612761836002613467565b8151811061277157612771613363565b602090810291909101015280612786816133d0565b9150506126b7565b5060005b86518110156124625760008782815181106127af576127af613363565b60200260200101516001600160a01b03168783815181106127d2576127d2613363565b602002602001015160405160006040518083038185875af1925050503d806000811461281a576040519150601f19603f3d011682016040523d82523d6000602084013e61281f565b606091505b50509050806128635760405162461bcd60e51b815260206004820152601060248201526f2a3930b739b332b9103330b4b632b21760811b60448201526064016109f3565b508061286e816133d0565b915050612792565b60405162461bcd60e51b815260206004820152601a60248201527f4e6f20616c6c6f77656420746f2070756c6c207061796d656e7400000000000060448201526064016109f3565b336128fe5760405162461bcd60e51b815260206004820152601060248201526f24b73b30b634b21030b2323932b9b99760811b60448201526064016109f3565b3360009081526002602052604090205460ff1615156001146129625760405162461bcd60e51b815260206004820152601660248201527f576f726b657220646f6573206e6f742065786973742e0000000000000000000060448201526064016109f3565b336000908152600260205260409020805460ff19169055565b61298361304a565b6000805462ffffff60a01b191660ff92909216600160a01b02919091179055565b8060018060008381526005602052604090206007015460ff16600b8111156129ce576129ce61312b565b146129eb5760405162461bcd60e51b81526004016109f390613303565b60008381526005602052604090206001015483906001600160a01b03163314612a665760405162461bcd60e51b815260206004820152602760248201527f4f6e6c792074686520776f726b65722063616e2063616c6c20746869732066756044820152663731ba34b7b71760c91b60648201526084016109f3565b60008481526005602052604090206007810180546002919060ff191660018302179055506000805160206134cd83398151915260016002604051610b29929190613348565b8160058060008381526005602052604090206007015460ff16600b811115612ad557612ad561312b565b14612af25760405162461bcd60e51b81526004016109f390613303565b60008481526005602090815260408083206006810154845260049092528220600381015491929091815b818162ffffff161015612b8557336001600160a01b0316846003018262ffffff1681548110612b4d57612b4d613363565b60009182526020909120015464010000000090046001600160a01b031603612b73578092505b80612b7d8161338f565b915050612b1c565b50826003018262ffffff1681548110612ba057612ba0613363565b6000918252602090912001546301000000900460ff1615612c0e5760405162461bcd60e51b815260206004820152602260248201527f546865206a757279206d656d6265722068617320616c726561647920766f7465604482015261321760f11b60648201526084016109f3565b6001836003018362ffffff1681548110612c2a57612c2a613363565b60009182526020822001805492151563010000000263ff000000199093169290921790915560028401805462ffffff1691612c648361338f565b91906101000a81548162ffffff021916908362ffffff160217905550508615612cc7576002830180546301000000900462ffffff16906003612ca58361338f565b91906101000a81548162ffffff021916908362ffffff16021790555050612d06565b6002830180546601000000000000900462ffffff16906006612ce88361338f565b91906101000a81548162ffffff021916908362ffffff160217905550505b600283015462ffffff16819003612d525760078401805460ff191660069081179091556040516000805160206134cd83398151915291612d499160059190613348565b60405180910390a15b5050505050505050565b33612d9c5760405162461bcd60e51b815260206004820152601060248201526f24b73b30b634b21030b2323932b9b99760811b60448201526064016109f3565b612da533611688565b1515600114612df65760405162461bcd60e51b815260206004820152601460248201527f4a75727920646f6573206e6f742065786973742e00000000000000000000000060448201526064016109f3565b6000805b60095481108015612e09575081155b15612e6157600081815260066020526040902054336001600160a01b0390911603612e4f57600081815260066020526040902080546001600160a01b0319169055600191505b80612e59816133d0565b915050612dfa565b5060098054906000612e72836134a1565b919050555050565b3360009081526003602052604081205460ff1615156001036111345750600190565b612ea461304a565b6001600160a01b038116612f095760405162461bcd60e51b815260206004820152602660248201527f4f776e61626c653a206e6577206f776e657220697320746865207a65726f206160448201526564647265737360d01b60648201526084016109f3565b612f12816130a4565b50565b60008281526005602052604081203382805b6003811161303f576040516bffffffffffffffffffffffff19606085901b166020820152426034820152436054820152607481018790526094810182905260009060b4016040516020818303038152906040528051906020012060001c9050600954612fc38260408051426020808301919091524482840152606080830194909452825180830390940184526080909101909152815191012090565b612fcd91906134b8565b6000818152600660205260409020546001600160a01b0316945092508315801590613005575084546001600160a01b03858116911614155b8015613021575060018501546001600160a01b03858116911614155b1561302c575061303f565b5080613037816133d0565b915050612f27565b509095945050505050565b6000546001600160a01b031633146115b85760405162461bcd60e51b815260206004820181905260248201527f4f776e61626c653a2063616c6c6572206973206e6f7420746865206f776e657260448201526064016109f3565b600080546001600160a01b038381166001600160a01b0319831681178455604051919092169283917f8be0079c531659141344cd1fd0a4f28419497f9722a3daafe3b4186f6b6457e09190a35050565b60405180606001604052806003906020820280368337509192915050565b60006020828403121561312457600080fd5b5035919050565b634e487b7160e01b600052602160045260246000fd5b600c811061315f57634e487b7160e01b600052602160045260246000fd5b9052565b602081016112a98284613141565b80356001600160a01b038116811461318857600080fd5b919050565b60006020828403121561319f57600080fd5b6131a882613171565b9392505050565b600080604083850312156131c257600080fd5b823591506131d260208401613171565b90509250929050565b6000610100820190506001600160a01b03808b168352808a166020840152508760408301528660608301528560808301528460a08301528360c083015261322560e0830184613141565b9998505050505050505050565b60006020828403121561324457600080fd5b813560ff811681146131a857600080fd5b6020808252825182820181905260009190848201906040850190845b818110156132965783516001600160a01b031683529284019291840191600101613271565b50909695505050505050565b6000806000606084860312156132b757600080fd5b505081359360208301359350604090920135919050565b600080604083850312156132e157600080fd5b82359150602083013580151581146132f857600080fd5b809150509250929050565b60208082526025908201527f436f6e7472616374206973206e6f7420696e2074686520636f727265637420736040820152643a30ba329760d91b606082015260800190565b604081016133568285613141565b6131a86020830184613141565b634e487b7160e01b600052603260045260246000fd5b634e487b7160e01b600052601160045260246000fd5b600062ffffff8083168181036133a7576133a7613379565b6001019392505050565b600062ffffff8216806133c6576133c6613379565b6000190192915050565b6000600182016133e2576133e2613379565b5060010190565b634e487b7160e01b600052604160045260246000fd5b634e487b7160e01b600052601260045260246000fd5b600060ff831680613428576134286133ff565b8060ff84160491505092915050565b60ff82811682821603908111156112a9576112a9613379565b80820281158282048414176112a9576112a9613379565b808201808211156112a9576112a9613379565b600082613489576134896133ff565b500490565b818103818111156112a9576112a9613379565b6000816134b0576134b0613379565b506000190190565b6000826134c7576134c76133ff565b50069056feca0909b6a575d31f318fe4f6dcc11334c453853c378dcd7fcb70a9ed8a9df566a264697066735822122001167de53007580f76845df31cb82ac241ed5bd98b4a8948ac06b4c8945fff9264736f6c63430008120033",
  "devdoc": {
    "kind": "dev",
    "methods": {
      "owner()": {
        "details": "Returns the address of the current owner."
      },
      "renounceOwnership()": {
        "details": "Leaves the contract without owner. It will not be possible to call `onlyOwner` functions anymore. Can only be called by the current owner. NOTE: Renouncing ownership will leave the contract without an owner, thereby removing any functionality that is only available to the owner."
      },
      "transferOwnership(address)": {
        "details": "Transfers ownership of the contract to a new account (`newOwner`). Can only be called by the current owner."
      }
    },
    "version": 1
  },
  "userdoc": {
    "kind": "user",
    "methods": {},
    "version": 1
  },
  "storageLayout": {
    "storage": [
      {
        "astId": 7,
        "contract": "contracts/freelanceContract.sol:freelanceContract",
        "label": "_owner",
        "offset": 0,
        "slot": "0",
        "type": "t_address"
      },
      {
        "astId": 1342,
        "contract": "contracts/freelanceContract.sol:freelanceContract",
        "label": "juryLength",
        "offset": 20,
        "slot": "0",
        "type": "t_uint24"
      },
      {
        "astId": 1344,
        "contract": "contracts/freelanceContract.sol:freelanceContract",
        "label": "protocolFee",
        "offset": 23,
        "slot": "0",
        "type": "t_uint8"
      },
      {
        "astId": 1346,
        "contract": "contracts/freelanceContract.sol:freelanceContract",
        "label": "juryFee",
        "offset": 24,
        "slot": "0",
        "type": "t_uint8"
      },
      {
        "astId": 1348,
        "contract": "contracts/freelanceContract.sol:freelanceContract",
        "label": "protocolAddress",
        "offset": 0,
        "slot": "1",
        "type": "t_address_payable"
      },
      {
        "astId": 1424,
        "contract": "contracts/freelanceContract.sol:freelanceContract",
        "label": "workers",
        "offset": 0,
        "slot": "2",
        "type": "t_mapping(t_address,t_bool)"
      },
      {
        "astId": 1428,
        "contract": "contracts/freelanceContract.sol:freelanceContract",
        "label": "clients",
        "offset": 0,
        "slot": "3",
        "type": "t_mapping(t_address,t_bool)"
      },
      {
        "astId": 1433,
        "contract": "contracts/freelanceContract.sol:freelanceContract",
        "label": "disputes",
        "offset": 0,
        "slot": "4",
        "type": "t_mapping(t_uint256,t_struct(Dispute)1413_storage)"
      },
      {
        "astId": 1438,
        "contract": "contracts/freelanceContract.sol:freelanceContract",
        "label": "contracts",
        "offset": 0,
        "slot": "5",
        "type": "t_mapping(t_uint256,t_struct(ContractPact)1396_storage)"
      },
      {
        "astId": 1442,
        "contract": "contracts/freelanceContract.sol:freelanceContract",
        "label": "juryPool",
        "offset": 0,
        "slot": "6",
        "type": "t_mapping(t_uint256,t_address)"
      },
      {
        "astId": 1445,
        "contract": "contracts/freelanceContract.sol:freelanceContract",
        "label": "contractCounter",
        "offset": 0,
        "slot": "7",
        "type": "t_uint256"
      },
      {
        "astId": 1448,
        "contract": "contracts/freelanceContract.sol:freelanceContract",
        "label": "disputeCounter",
        "offset": 0,
        "slot": "8",
        "type": "t_uint256"
      },
      {
        "astId": 1451,
        "contract": "contracts/freelanceContract.sol:freelanceContract",
        "label": "juryCounter",
        "offset": 0,
        "slot": "9",
        "type": "t_uint256"
      },
      {
        "astId": 1468,
        "contract": "contracts/freelanceContract.sol:freelanceContract",
        "label": "contractStates",
        "offset": 0,
        "slot": "10",
        "type": "t_array(t_enum(ContractState)1464)dyn_storage"
      }
    ],
    "types": {
      "t_address": {
        "encoding": "inplace",
        "label": "address",
        "numberOfBytes": "20"
      },
      "t_address_payable": {
        "encoding": "inplace",
        "label": "address payable",
        "numberOfBytes": "20"
      },
      "t_array(t_enum(ContractState)1464)dyn_storage": {
        "base": "t_enum(ContractState)1464",
        "encoding": "dynamic_array",
        "label": "enum freelanceContract.ContractState[]",
        "numberOfBytes": "32"
      },
      "t_array(t_struct(juryMember)1420_storage)dyn_storage": {
        "base": "t_struct(juryMember)1420_storage",
        "encoding": "dynamic_array",
        "label": "struct freelanceContract.juryMember[]",
        "numberOfBytes": "32"
      },
      "t_bool": {
        "encoding": "inplace",
        "label": "bool",
        "numberOfBytes": "1"
      },
      "t_bytes32": {
        "encoding": "inplace",
        "label": "bytes32",
        "numberOfBytes": "32"
      },
      "t_enum(ContractState)1464": {
        "encoding": "inplace",
        "label": "enum freelanceContract.ContractState",
        "numberOfBytes": "1"
      },
      "t_mapping(t_address,t_bool)": {
        "encoding": "mapping",
        "key": "t_address",
        "label": "mapping(address => bool)",
        "numberOfBytes": "32",
        "value": "t_bool"
      },
      "t_mapping(t_uint256,t_address)": {
        "encoding": "mapping",
        "key": "t_uint256",
        "label": "mapping(uint256 => address)",
        "numberOfBytes": "32",
        "value": "t_address"
      },
      "t_mapping(t_uint256,t_struct(ContractPact)1396_storage)": {
        "encoding": "mapping",
        "key": "t_uint256",
        "label": "mapping(uint256 => struct freelanceContract.ContractPact)",
        "numberOfBytes": "32",
        "value": "t_struct(ContractPact)1396_storage"
      },
      "t_mapping(t_uint256,t_struct(Dispute)1413_storage)": {
        "encoding": "mapping",
        "key": "t_uint256",
        "label": "mapping(uint256 => struct freelanceContract.Dispute)",
        "numberOfBytes": "32",
        "value": "t_struct(Dispute)1413_storage"
      },
      "t_struct(ContractPact)1396_storage": {
        "encoding": "inplace",
        "label": "struct freelanceContract.ContractPact",
        "members": [
          {
            "astId": 1380,
            "contract": "contracts/freelanceContract.sol:freelanceContract",
            "label": "client",
            "offset": 0,
            "slot": "0",
            "type": "t_address_payable"
          },
          {
            "astId": 1382,
            "contract": "contracts/freelanceContract.sol:freelanceContract",
            "label": "worker",
            "offset": 0,
            "slot": "1",
            "type": "t_address_payable"
          },
          {
            "astId": 1384,
            "contract": "contracts/freelanceContract.sol:freelanceContract",
            "label": "hashJob",
            "offset": 0,
            "slot": "2",
            "type": "t_bytes32"
          },
          {
            "astId": 1386,
            "contract": "contracts/freelanceContract.sol:freelanceContract",
            "label": "deadline",
            "offset": 0,
            "slot": "3",
            "type": "t_uint256"
          },
          {
            "astId": 1388,
            "contract": "contracts/freelanceContract.sol:freelanceContract",
            "label": "createAt",
            "offset": 0,
            "slot": "4",
            "type": "t_uint256"
          },
          {
            "astId": 1390,
            "contract": "contracts/freelanceContract.sol:freelanceContract",
            "label": "price",
            "offset": 0,
            "slot": "5",
            "type": "t_uint256"
          },
          {
            "astId": 1392,
            "contract": "contracts/freelanceContract.sol:freelanceContract",
            "label": "disputeId",
            "offset": 0,
            "slot": "6",
            "type": "t_uint256"
          },
          {
            "astId": 1395,
            "contract": "contracts/freelanceContract.sol:freelanceContract",
            "label": "state",
            "offset": 0,
            "slot": "7",
            "type": "t_enum(ContractState)1464"
          }
        ],
        "numberOfBytes": "256"
      },
      "t_struct(Dispute)1413_storage": {
        "encoding": "inplace",
        "label": "struct freelanceContract.Dispute",
        "members": [
          {
            "astId": 1398,
            "contract": "contracts/freelanceContract.sol:freelanceContract",
            "label": "disputeId",
            "offset": 0,
            "slot": "0",
            "type": "t_uint256"
          },
          {
            "astId": 1400,
            "contract": "contracts/freelanceContract.sol:freelanceContract",
            "label": "contractId",
            "offset": 0,
            "slot": "1",
            "type": "t_uint256"
          },
          {
            "astId": 1402,
            "contract": "contracts/freelanceContract.sol:freelanceContract",
            "label": "totalVoteCount",
            "offset": 0,
            "slot": "2",
            "type": "t_uint24"
          },
          {
            "astId": 1404,
            "contract": "contracts/freelanceContract.sol:freelanceContract",
            "label": "clientVoteCount",
            "offset": 3,
            "slot": "2",
            "type": "t_uint24"
          },
          {
            "astId": 1406,
            "contract": "contracts/freelanceContract.sol:freelanceContract",
            "label": "workerVoteCount",
            "offset": 6,
            "slot": "2",
            "type": "t_uint24"
          },
          {
            "astId": 1408,
            "contract": "contracts/freelanceContract.sol:freelanceContract",
            "label": "disputeInitiator",
            "offset": 9,
            "slot": "2",
            "type": "t_address"
          },
          {
            "astId": 1412,
            "contract": "contracts/freelanceContract.sol:freelanceContract",
            "label": "juryMembers",
            "offset": 0,
            "slot": "3",
            "type": "t_array(t_struct(juryMember)1420_storage)dyn_storage"
          }
        ],
        "numberOfBytes": "128"
      },
      "t_struct(juryMember)1420_storage": {
        "encoding": "inplace",
        "label": "struct freelanceContract.juryMember",
        "members": [
          {
            "astId": 1415,
            "contract": "contracts/freelanceContract.sol:freelanceContract",
            "label": "juryId",
            "offset": 0,
            "slot": "0",
            "type": "t_uint24"
          },
          {
            "astId": 1417,
            "contract": "contracts/freelanceContract.sol:freelanceContract",
            "label": "hasVoted",
            "offset": 3,
            "slot": "0",
            "type": "t_bool"
          },
          {
            "astId": 1419,
            "contract": "contracts/freelanceContract.sol:freelanceContract",
            "label": "juryAddress",
            "offset": 4,
            "slot": "0",
            "type": "t_address_payable"
          }
        ],
        "numberOfBytes": "32"
      },
      "t_uint24": {
        "encoding": "inplace",
        "label": "uint24",
        "numberOfBytes": "3"
      },
      "t_uint256": {
        "encoding": "inplace",
        "label": "uint256",
        "numberOfBytes": "32"
      },
      "t_uint8": {
        "encoding": "inplace",
        "label": "uint8",
        "numberOfBytes": "1"
      }
    }
  }
}